:060000000A128A11FC2F18
:100F8400831603130715831203139101523083163A
:100F9400031392003F308312031395000C30970023
:100FA40097161712831603130711053083120313C0
:100FB400920008008316031789018801831603131E
:100FC4000910831203130914FF30831603138600D8
:100FD4008113FF309500831203130618F22FF32FA9
:100FE400F82F0A128A11C2270A128A11F82F0A123C
:0C0FF4008A11002883010A128A11DC2FE8
:04400E00D224FF3F7A
:00000001FF
