:060000000A128A11122809
:10000800FE00030E83120313E0000408E1000A084F
:10001800E2007F08E3000A128A119C2C0A128A1156
:10002800152883120313E801E901EA01EB01EC0149
:10003800ED018313A0308400C0300A128A11F8271A
:100048000A128A1183010A128A11E22C83120313FD
:10005800B700B41B30283228013033280030BC00E8
:10006800EB1F372838283D280130BA000030BB0084
:1000780041286B08BB006A08BA006908B90068081B
:10008800B8003C08031949284A286028FF30B807F7
:100098000318B90AFF30B9073C08031D542855282E
:1000A8005A282B30B5000030B6005E282D30B50038
:1000B8000030B6003508BC001F30BD000030BE005F
:1000C80083160313BF01AE28FF3083120313BD0745
:1000D8000318BE0AFF30BE073D08A03E84000A3060
:1000E800F0000030F1003408F3003308F2000A127F
:1000F8008A11FD220A128A117108F7007008F600A9
:100108000A128A11E8260A128A117608303E8313E9
:100118008000FF3083120313BA070318BB0AFF30AD
:10012800BB07FF30B8070318B90AFF30B9070A3010
:10013800F0000030F1003408F3003308F2000A122E
:100148008A113C220A128A11710883120313B4001F
:100158007008B30083123E08803AFF0080307F02A7
:10016800031DB82801303D02031CBB28BC28D12838
:100178008312031333083404031DC328C4286828D2
:100188003B08803AFF0080307F02031DCD280130F4
:100198003A020318D028D1286828831203133C0890
:1001A8000319D728D828E428FF30BD070318BE0A4A
:1001B800FF30BE073D08A03E84003C088313800042
:1001C8003D08A03EAC003908AE003808AD0037083D
:1001D8000A128A11E5250A128A11080083160313E8
:1001E800881188100811081288120813881314300F
:1001F80083160313C7007930C600C60B0129C70B45
:1002080001298312031388100811881103300A1278
:100218008A1150240A128A110D3083160313C7005D
:10022800FB30C600C60B1629C70B162903300A1265
:100238008A1150240A128A110D3083160313C7003D
:10024800FB30C600C60B2629C70B262903300A1225
:100258008A1150240A128A110D3083160313C7001D
:10026800FB30C600C60B3629C70B362902300A12E6
:100278008A1150240A128A110A128A11A7250A1211
:100288008A11003A031D49294A2940292830831632
:100298000313C30000300A128A1166250A128A1154
:1002A8000A128A11A7250A128A11003A031D5D292C
:1002B8005E2954290C3083160313C30000300A1238
:1002C8008A1166250A128A110A128A11A7250A12AA
:1002D8008A11003A031D71297229682983160313AC
:1002E800C301C30A00300A128A1166250A128A114C
:1002F8000A128A11A7250A128A11003A031D8529B4
:1003080086297C29063083160313C30000300A129D
:100318008A1166250A128A110A128A11A7250A1259
:100328008A11003A031D99299A29902908008312F5
:100338000313C7003F0884008313000884000A12CF
:100348008A110A270A128A11253A031DAC29AD29F8
:10035800242A0130FF003F0884007F088007E80155
:10036800E9010310003003180130EC00FF30EA0007
:10037800FF30EB003F088400000884000A128A114D
:100388000A270A128A112E3A031DCB29CC29E02903
:100398000130FF003F0884007F0880074008F6000E
:1003A8003F080A128A1156230A128A117708831203
:1003B8000313EB007608EA003F0884008313000863
:1003C800C800480884000A128A110A270A128A11EA
:1003D800643A0319F029F129FD29480884000A1212
:1003E8008A110A270A128A11693A031DFC29FD2974
:1003F8001A2A400884000008FF00023080077F089E
:1004080084000008C300840A0008C4003F08840070
:100418004808013E80004408B4004308B300470878
:100428000A128A112A200A128A113B2A0130FF0077
:10043800831203133F0884007F08831380073B2A35
:100448003F088400000884000A128A110A270A1249
:100458008A11C100C2014108FB004208FC0047089C
:10046800FD000A128A11A3220A128A111A2A080008
:10047800F501F11F402A412A482AF009F109F00A3A
:100488000319F10AF501F50AF31F4B2A4C2A552ADC
:10049800F209F309F20A0319F30A0130FF007F0891
:1004A800F506F601F7017008710403195C2A5D2A44
:1004B800942AF401F40A6B2A01300310F00DF10DAF
:1004C800FF3E031D612A0130FF007F08F407F11F7A
:1004D8006E2A6F2A602A01300310F60DF70DFF3ED1
:1004E800031D702A71087302031D7C2A70087202AA
:1004F800031C7F2A802A872A7008F2027108031CCD
:10050800F303F302761401300310F10CF00CFF3EF4
:10051800031D882A0130F402031D932A942A6F2AA6
:1005280075080319982A992A9E2AF609F709F60ADE
:100538000319F70A7708F1007608F00008007D082B
:100548000319A72AA82AAD2A7D08031DAC2AAD2ABB
:10055800B42A7B080A128A15F8270A128A11FC2A7B
:100568007D08093E84008313000883120313A0004A
:10057800840A0008A100200821040319C42AC52AF6
:10058800E32A7D08093E84000008A000840A0008C8
:10059800A1007D08023E84000008A200840A000829
:1005A800A3002308803AA4002108803A2402031DEE
:1005B800DF2A200822020318E22AE32AFC2A7D08FF
:1005C800023E84008313000883120313A0007D08F1
:1005D800840000082007A100210884007B0880000F
:1005E8007D08023E840001308007840A0318800ACF
:1005F8000800F501F31F012B022B092BF209F3095F
:10060800F20A0319F30AF501F50AF11F0C2B0D2B59
:10061800122BF009F109F00A0319F10A70087104A4
:100628000319172B182B472BF401F40A262B01303A
:100638000310F00DF10DFF3E031D1C2B0130FF00D0
:100648007F08F407F11F292B2A2B1B2B7108730233
:10065800031D302B70087202031C332B342B3A2BEA
:100668007008F2027108031CF303F302013003104F
:10067800F10CF00CFF3E031D3B2B0130F402031D6F
:10068800462B472B2A2B750803194B2B4C2B512B28
:10069800F209F309F20A0319F30A7308F100720860
:1006A800F0000800FB00F901FA017B0884008313BD
:1006B800000884000A128A110A270A128A112A3AA3
:1006C800031D672B682B982B0130FF007B088400E3
:1006D8007F088007760884000008FF000230800742
:1006E8007F0884000008F900840A0008FA00A92B92
:1006F8007A08F1007908F0000A30F2000030F300BF
:100708000A128A114D270A128A1178087007F9000F
:100718000030031801307107FA000130FF007B0830
:1007280084007F08831380077B0884000008840006
:100738000A128A110A270A128A11D03EF8000A30D2
:100748007802031CA82BA92B7C2B7A08F7007908C0
:10075800F600080083160313C900F42BC301C30A6B
:1007680000300A128A1166250A128A110A128A11A1
:10077800A7250A128A11003A031DC32BC42BBA2BD2
:10078800FF2BC601C60A00300A128A1172270A1204
:100798008A11FF2B1030C30000300A128A11662517
:1007A8000A128A110A128A11A7250A128A11003A16
:1007B800031DDF2BE02BD62BFF2B4908C30001308C
:1007C8000A128A1166250A128A110A128A11A725A5
:1007D8000A128A11003A031DF22BF32BE92BFF2B87
:1007E8004908083A0319CE2B023A0319C52B063AD1
:1007F8000319B22BE12B0800F900442CF301F30A8A
:1008080000300A128A111F260A128A110A128A1146
:100818008E260A128A11003A031D132C142C0A2C56
:100828004F2CF601F60A00300A128A1196270A128E
:100838008A114F2C1030F30000300A128A111F263B
:100848000A128A110A128A118E260A128A11003A8D
:10085800031D2F2C302C262C4F2C7908F300013047
:100868000A128A111F260A128A110A128A118E2662
:100878000A128A11003A031D422C432C392C4F2CA2
:100888007908083A03191E2C023A0319152C063A5E
:100898000319022C312C080083160313C100081217
:1008A8008812081388134108C20042185C2C602C77
:1008B800831203130816632C83120313081283167A
:1008C8000313C218682C6C2C8312031388166F2C20
:1008D800831203138812831603134219742C782C7D
:1008E8008312031308177B2C831203130813831630
:1008F8000313C219802C842C831203138817872CA6
:10090800831203138813053083160313C000C00B2A
:100918008B2C8E2C83120313881505308316031332
:10092800C000C00B952C982C831203138811080063
:10093800C33083120313DF00CC30DE00DE0BA22CA1
:10094800DF0BA22C00000130FF007F088312031385
:10095800ED0715306D02031CB22CB32CB42CED013D
:100968001030CD006D08DE00DF015E08CE005F08A4
:10097800CF0064300A128A11D9270A128A11F601A7
:10098800F60A08300A128A1196270A128A11643068
:10099800FA000030FB000A128A1127270A128A116E
:1009A8008B10831203136308FF0062088A00610832
:1009B8008400600E8300FE0E7E0E09008316031766
:1009C80089018801831603130614811315148B10EB
:1009D8008B170B16011783120313ED010A128A11E4
:1009E800F2200A128A1183160313C60100300A1274
:1009F8008A1172270A128A11013083160313CA005A
:100A08008030CB000A128A1158260A128A118316DE
:100A18000313C601C60A08300A128A1172270A127D
:100A28008A11153083160313CA008030CB000A12CE
:100A38008A1158260A128A11202D0A128A111228A0
:100A4800F10083160313081288120813881371081B
:100A5800F2007218302D342D831203130816372D27
:100A6800831203130812F2183A2D3E2D8312031332
:100A78008816412D8312031388127219442D482DAC
:100A88008312031308174B2D831203130813F2194B
:100A98004E2D522D831203138817552D83120313DD
:100AA80088130630F000F00B572D00008312031353
:100AB80088150630F000F00B5F2D00008312031339
:100AC8008811080083160313C5000812881208133A
:100AD800881345080319712D722D762D831203137F
:100AE8008814792D83120313881005308316031395
:100AF800C400C40B7D2D802D83120313081105300B
:100B080083160313C400C40B872D8A2D8312031385
:100B18008811831603134308C40004300310C40C5F
:100B2800FF3E031D922D44080A128A1150240A120E
:100B38008A118316031343080F390A128A115024A5
:100B48000A128A1108008316031308168816081754
:100B580088178312031308158810053083160313AA
:100B6800C000C00BB52DB82D8312031388150530AE
:100B780083160313C000C00BBF2DC22D0030831293
:100B88000313881B013083160313C1008312031358
:100B98008811053083160313C000C00BD12DD42D46
:100BA800831203138815053083160313C000C00B86
:100BB800DB2DDE2D831203138811831603134108DE
:100BC800080083120313B200AE1FEB2DEC2DEE2D9F
:100BD800AD01AE01B001B101062E2030FB0000309E
:100BE800FC00831203133208FD000A128A11A322A3
:100BF8000A128A11013083120313B0070318B10ACD
:100C08000030B1073108803AAF002E08803A2F0231
:100C1800031D102E2D083002031C132E142EF12D47
:100C2800831203133208A5002C080A128A11BE2663
:100C38000A128A110800F500831603130812881295
:100C480008138813750803192A2E2B2E2F2E8312AA
:100C580003138814322E8312031388100630F4000D
:100C6800F40B342E00008312031308110630F4002D
:100C7800F40B3C2E00008312031388117308F40050
:100C880004300310F40CFF3E031D452E74080A12AD
:100C98008A1124250A128A1173080F390A128A1137
:100CA80024250A128A110800772E831603134B088D
:100CB80083120313FF00831603134A088400831268
:100CC80003130A128A1100270A128A110A128A11BA
:100CD800AE230A128A11013083160313CA070318B8
:100CE800CB0A0030CB07831603134B088312031378
:100CF800FF00831603134A088400831203130A12A1
:100D08008A1100270A128A11003A031D8C2E8D2E93
:100D1800592E080083160313081688160817881713
:100D280083120313081588100630F000F00B9A2E72
:100D380000008312031388150630F000F00BA22E72
:100D48000000003083120313881B0130F100881162
:100D58000630F000F00BAE2E000083120313881546
:100D68000630F000F00BB62E000083120313881132
:100D78007108080083120313AB00A901AA01DA2E37
:100D88002808A600A7012608FB002708FC0025085C
:100D9800FD000A128A11A3220A128A110130831255
:100DA8000313A9070318AA0A0030AA0729082B0762
:100DB800A6002608840083130008A8002808031D3D
:100DC800E62EE72EC42E0800F71BEB2EEC2EED2E98
:100DD800F82E7609F8007709F900F80A0319F90AD4
:0A0DE8007808F6007908F70008000B
:100E0000FF1B0A2F83137F1883170008840A031916
:100E1000FF0A080007308A000408840A82070034A9
:100E20005434523441344E342034543448344934E8
:100E30004E3448342034643465346D340034253401
:100E40002E343234643400343034303400343C2FA7
:100E50007B08FF007A0884000A128A1100270A1210
:100E60008A110A128A1100240A128A110130FA0723
:100E70000318FB0A0030FB077B0883120313FF00F3
:100E80007A0884000A128A1100270A128A11003A8D
:100E9000031D4B2F4C2F282F0800F401F501701C67
:100EA000522F532F592F7208F4070318F50A7308AD
:100EB000F50701300310F20DF30DFF3E031D5A2F0D
:100EC00001300310F10CF00CFF3E031D612F700880
:100ED0007104031D6C2F6D2F4F2F7508F1007408DE
:100EE000F000080083160313C70046080319792F82
:100EF0007A2F7D2F4030C8007E2FC8014708FF00A1
:100F00007F08C80748088038C30000300A128A11D9
:100F100066250A128A110A128A11A7250A128A1155
:100F2000003A031D942F952F8B2F0800F7007608A9
:100F300003199B2F9C2F9F2F4030F800A02FF80102
:100F40007708FF007F08F80778088038F300003042
:100F50000A128A111F260A128A110A128A118E2673
:100F60000A128A11003A031DB62FB72FAD2F0800C1
:100F700083120313CB004908CC00C82F4C30BF00AC
:100F80004A08C0004B080A128A119B210A128A11D2
:100F9000831203134C0884000A128A110A270A12CA
:100FA0008A11003A031DD52FD62FBE2FC901CA01C1
:100FB000080083120313D2004E30D1005208D30030
:100FC000D501D601DC01DD014D08C9005130CA0050
:100FD00053300A128A11B8270A128A118312031396
:100FE00055085207D0005008840083138001080080
:100FF00064008001840A0406031900340406F92FF2
:101FF000FA007A080A128A1100240A128A150800C7
:04400E00D224FF3F7A
:00000001FF
