:060000000A128A11122809
:10000800FE00030E83120313E0000408E1000A084F
:10001800E2007F08E3000A128A11FC280A128A11FA
:1000280015288313A0308400C8300A128A11F227D9
:100038000A128A1183010A128A110E2B83120313E2
:10004800B700B41B28282A2801302B280030BC0010
:1000580083160313A31F312832283928013083124D
:100068000313BA000030BB0043282308831203138C
:10007800BB0083160313220883120313BA008316E6
:100088000313210883120313B900831603132008EE
:1000980083120313B8003C080319532854286A280C
:1000A800FF30B8070318B90AFF30B9073C08031D29
:1000B8005E285F2864282B30B5000030B600682819
:1000C8002D30B5000030B6003508BC001F30BD002B
:1000D8000030BE0083160313C701B828FF3083120F
:1000E8000313BD070318BE0AFF30BE073D08A83E2C
:1000F80084000A30F0000030F1003408F3003308BF
:10010800F2000A128A1169240A128A117108F7008A
:100118007008F6000A128A1544270A128A1176080E
:10012800303E83138000FF3083120313BA0703188D
:10013800BB0AFF30BB07FF30B8070318B90AFF3006
:10014800B9070A30F0000030F1003408F300330832
:10015800F2000A128A11A8230A128A11710883125E
:100168000313B4007008B30083123E08803AFF00FE
:1001780080307F02031DC22801303D02031CC528C0
:10018800C628DB288312031333083404031DCD2843
:10019800CE2872283B08803AFF0080307F02031D7A
:1001A800D72801303A020318DA28DB28722883128C
:1001B80003133C080319E128E228EE28FF30BD07A5
:1001C8000318BE0AFF30BE073D08A83E84003C085D
:1001D800831380003D08A83EAC003908AE003808FB
:1001E800AD0037080A128A11C9260A128A110800B6
:1001F8000608413083120313DF00ED30DE00DE0B0A
:100208000329DF0B032908298312031306180D2974
:100218000E2942290130FF007F0883160313A70720
:100228000B302706031D19291A291B29A70101309C
:1002380083120313CD0083160313270883120313B5
:10024800DE00DF015E08CE005F08CF0064300A12CE
:100258008A1555270A128A11F601F60A00300A1281
:100268008A1595270A128A116430FA000030FB00BB
:100278000A128A11CC270A128A11B129861845292F
:1002880046297A290130FF007F0883160313A60741
:100298000B302606031D512952295329A601013086
:1002A80083120313CD008316031326088312031346
:1002B800DE00DF015E08CE005F08CF0068300A125A
:1002C8008A1555270A128A11F601F60A07300A120A
:1002D8008A1595270A128A116830FA000030FB0047
:1002E8000A128A11CC270A128A11B12906197D2906
:1002F8007E29B1290130FF007F0883160313A50763
:100308000B302506031D89298A298B29A50101306F
:1003180083120313CD0083160313250883120313D6
:10032800DE00DF015E08CE005F08CF006C300A12E5
:100338008A1555270A128A11F601F60A0E300A1292
:100348008A1595270A128A116C30FA000030FB00D2
:100358000A128A11CC270A128A110B10831203136E
:100368006308FF0062088A0061088400600E830049
:10037800FE0E7E0E090083160313881188100811DB
:100388000812881208138813143083160313CF0039
:100398007930CE00CE0BCE29CF0BCE298312031392
:1003A80088100811881103300A128A11BC250A1214
:1003B8008A110D3083160313CF00FB30CE00CE0B0D
:1003C800E329CF0BE32903300A128A11BC250A124C
:1003D8008A110D3083160313CF00FB30CE00CE0BED
:1003E800F329CF0BF32903300A128A11BC250A120C
:1003F8008A110D3083160313CF00FB30CE00CE0BCD
:10040800032ACF0B032A02300A128A11BC250A12CA
:100418008A110A128A118B260A128A11003A031DC0
:10042800162A172A0D2A283083160313CB0000300A
:100438000A128A114A260A128A110A128A118B266E
:100448000A128A11003A031D2A2A2B2A212A0C3063
:1004580083160313CB0000300A128A114A260A12A7
:100468008A110A128A118B260A128A11003A031D70
:100478003E2A3F2A352A83160313CB01CB0A0030C4
:100488000A128A114A260A128A110A128A118B261E
:100498000A128A11003A031D522A532A492A0630A1
:1004A80083160313CB0000300A128A114A260A1257
:1004B8008A110A128A118B260A128A11003A031D20
:1004C800662A672A5D2A080083120313C7003F08BB
:1004D80084008313000884000A128A150A200A126D
:1004E8008A11253A031D792A7A2AF62A0130FF0053
:1004F8003F0884007F08800783160313A001A10129
:100508000310003003180130A400FF30A200FF30B0
:10051800A300831203133F088400000884000A1212
:100528008A150A200A128A112E3A031D9C2A9D2A2E
:10053800B12A0130FF003F0884007F088007400887
:10054800F6003F080A128A11C2240A128A11770893
:1005580083160313A3007608A20083123F088400C1
:1005680083130008C800480884000A128A150A2064
:100578000A128A11643A0319C22AC32ACF2A4808E0
:1005880084000A128A150A200A128A11693A031D80
:10059800CE2ACF2AEC2A400884000008FF00023047
:1005A80080077F0884000008C300840A0008C4008C
:1005B8003F0884004808013E80004408B40043080E
:1005C800B30047080A128A1122200A128A110D2B39
:1005D8000130FF00831203133F0884007F08831350
:1005E80080070D2B3F088400000884000A128A1532
:1005F8000A200A128A11C100C2014108FB00420800
:10060800FC004708FD000A128A110F240A128A11F9
:10061800EC2A08008316031789018801FF30831626
:10062800031386008113FF3095000B108B158B1771
:10063800FF309600A701A601A5018312031306083F
:100648000A128A11BF210A128A1183160313CE01D6
:1006580000300A128A15B7270A128A110930831640
:100668000313D2008030D3000A128A113C270A12E1
:100678008A1183160313CE0107300A128A15B72789
:100688000A128A110C3083160313D2008030D3006B
:100698000A128A113C270A128A1183160313CE0103
:1006A8000E300A128A15B7270A128A110F308316DC
:1006B8000313D2008030D3000A128A113C270A1291
:1006C8008A1183160313CE01CE0A00300A128A1546
:1006D800B7270A128A11063083160313D200803016
:1006E800D3000A128A113C270A128A1183160313AF
:1006F800CE01CE0A07300A128A15B7270A128A11C4
:10070800063083160313D2008030D3000A128A11F0
:100718003C270A128A1183160313CE01CE0A0E3023
:100728000A128A15B7270A128A110630831603138C
:10073800D2008030D3000A128A113C270A128A118B
:10074800A42B0A128A111228F501F11FAC2BAD2B2C
:10075800B42BF009F109F00A0319F10AF501F50AB9
:10076800F31FB72BB82BC12BF209F309F20A0319AF
:10077800F30A0130FF007F08F506F601F70170085B
:1007880071040319C82BC92B002CF401F40AD72BC8
:1007980001300310F00DF10DFF3E031DCD2B01308C
:1007A800FF007F08F407F11FDA2BDB2BCC2B01307D
:1007B8000310F60DF70DFF3E031DDC2B71087302C5
:1007C800031DE82B70087202031CEB2BEC2BF32B98
:1007D8007008F2027108031CF303F3027614013067
:1007E8000310F10CF00CFF3E031DF42B0130F40252
:1007F800031DFF2B002CDB2B75080319042C052C7B
:100808000A2CF609F709F60A0319F70A7708F1001E
:100818007608F00008007D080319132C142C192CF5
:100828007D08031D182C192C202C7B080A128A1508
:100838003C270A128A11682C7D08093E840083131C
:10084800000883120313A000840A0008A1002008EE
:1008580021040319302C312C4F2C7D08093E8400CB
:100868000008A000840A0008A1007D08023E840058
:100878000008A200840A0008A3002308803AA40004
:100888002108803A2402031D4B2C20082202031859
:100898004E2C4F2C682C7D08023E840083130008E0
:1008A80083120313A0007D08840000082007A1001C
:1008B800210884007B0880007D08023E8400013006
:1008C8008007840A0318800A0800F501F31F6D2CBD
:1008D8006E2C752CF209F309F20A0319F30AF501D3
:1008E800F50AF11F782C792C7E2CF009F109F00A11
:1008F8000319F10A700871040319832C842CB32C92
:10090800F401F40A922C01300310F00DF10DFF3EB2
:10091800031D882C0130FF007F08F407F11F952C78
:10092800962C872C71087302031D9C2C7008720288
:10093800031C9F2CA02CA62C7008F2027108031C23
:10094800F303F30201300310F10CF00CFF3E031D1A
:10095800A72C0130F402031DB22CB32C962C750879
:100968000319B72CB82CBD2CF209F309F20A0319A4
:10097800F30A7308F1007208F0000800FB00F9019F
:10098800FA017B0884008313000884000A128A1580
:100998000A200A128A112A3A031DD32CD42C042DBA
:1009A8000130FF007B0884007F08800776088400F8
:1009B8000008FF00023080077F0884000008F90063
:1009C800840A0008FA00152D7A08F1007908F00069
:1009D8000A30F2000030F3000A128A15DB270A12E7
:1009E8008A1178087007F900003003180130710780
:1009F800FA000130FF007B0884007F08831380071A
:100A08007B088400000884000A128A150A200A124A
:100A18008A11D03EF8000A307802031C142D152DD7
:100A2800E82C7A08F7007908F60008008316031303
:100A3800D100602DCB01CB0A00300A128A114A2658
:100A48000A128A110A128A118B260A128A11003A8E
:100A5800031D2F2D302D262D6B2DCE01CE0A0030F3
:100A68000A128A15B7270A128A116B2D1030CB008B
:100A780000300A128A114A260A128A110A128A11A9
:100A88008B260A128A11003A031D4B2D4C2D422D3C
:100A98006B2D5108CB0001300A128A114A260A121E
:100AA8008A110A128A118B260A128A11003A031D2A
:100AB8005E2D5F2D552D6B2D5108083A03193A2DDF
:100AC800023A0319312D063A03191E2D4D2D08003F
:100AD800F900B02DF301F30A00300A128A11032736
:100AE8000A128A110A128A1172270A128A11003A06
:100AF800031D7F2D802D762DBB2DF601F60A0030C3
:100B08000A128A1595270A128A11BB2D1030F30094
:100B180000300A128A1103270A128A110A128A114E
:100B280072270A128A11003A031D9B2D9C2D922DC3
:100B3800BB2D7908F30001300A128A1103270A1223
:100B48008A110A128A1172270A128A11003A031DA1
:100B5800AE2DAF2DA52DBB2D7908083A03198A2D86
:100B6800023A0319812D063A03196E2D9D2D0800AE
:100B780083160313C900081288120813881349083A
:100B8800CA004A18C82DCC2D831203130816CF2D7E
:100B980083120313081283160313CA18D42DD82DF1
:100BA800831203138816DB2D83120313881283160E
:100BB80003134A19E02DE42D831203130817E72DB8
:100BC80083120313081383160313CA19EC2DF02D8F
:100BD800831203138817F32D831203138813053028
:100BE80083160313C800C80BF72DFA2D83120313BD
:100BF8008815053083160313C800C80B012E042E70
:100C08008312031388110800F100831603130812D6
:100C18008812081388137108F2007218142E182EFF
:100C28008312031308161B2E831203130812F218DB
:100C38001E2E222E831203138816252E83120313C9
:100C480088127219282E2C2E8312031308172F2EA0
:100C5800831203130813F219322E362E831203134C
:100C68008817392E8312031388130630F000F00B0F
:100C78003B2E00008312031388150630F000F00B9A
:100C8800432E0000831203138811080083160313F0
:100C9800CD0008128812081388134D080319552E21
:100CA800562E5A2E8312031388145D2E83120313B3
:100CB8008810053083160313CC00CC0B612E642EEC
:100CC800831203130811053083160313CC00CC0BD1
:100CD8006B2E6E2E831203138811831603134B0891
:100CE800CC0004300310CC0CFF3E031D762E4C08BC
:100CF8000A128A11BC250A128A11831603134B089B
:100D08000F390A128A11BC250A128A1108008316A3
:100D18000313081688160817881783120313081573
:100D28008810053083160313C800C80B992E9C2E13
:100D3800831203138815053083160313C800C80BE4
:100D4800A32EA62E003083120313881B01308316AE
:100D58000313C90083120313881105308316031384
:100D6800C800C80BB52EB82E83120313881505309A
:100D780083160313C800C80BBF2EC22E8312031399
:100D88008811831603134908080083120313B2005D
:100D9800AE1FCF2ED02ED22EAD01AE01B001B101C3
:100DA800EA2E2030FB000030FC00831203133208C7
:100DB800FD000A128A110F240A128A1101308312C7
:100DC8000313B0070318B10A0030B1073108803A9D
:100DD800AF002E08803A2F02031DF42E2D08300292
:100DE800031CF72EF82ED52E831203133208A50004
:100DF8002C080A128A11A2270A128A110800F50083
:100E08008316031308128812081388137508031928
:100E18000E2F0F2F132F831203138814162F8312EC
:100E2800031388100630F400F40B182F0000831207
:100E3800031308110630F400F40B202F000083126E
:100E4800031388117308F40004300310F40CFF3EF8
:100E5800031D292F74080A128A1108260A128A11FA
:100E680073080F390A128A1108260A128A11080013
:100E78005B2F83160313530883120313FF00831693
:100E8800031352088400831203130A128A150020E0
:100E98000A128A110A128A111A250A128A110130B5
:100EA80083160313D2070318D30A0030D307831617
:100EB8000313530883120313FF0083160313520806
:100EC8008400831203130A128A1500200A128A1159
:100ED800003A031D702F712F3D2F0800831603134E
:100EE8000816881608178817831203130815881020
:100EF8000630F000F00B7E2F0000831203138815D4
:100F08000630F000F00B862F000000308312031328
:100F1800881B0130F10088110630F000F00B922F89
:100F280000008312031388150630F000F00B9A2F87
:100F38000000831203138811710808008312031339
:100F4800AB00A901AA01BE2F2808A600A701260800
:100F5800FB002708FC002508FD000A128A110F244F
:100F68000A128A11013083120313A9070318AA0A67
:100F78000030AA0729082B07A60026088400831337
:100F88000008A8002808031DCA2FCB2FA82F080087
:100F9800E12F7B08FF007A0884000A128A150020D6
:100FA8000A128A110A128A116C250A128A11013052
:100FB800FA070318FB0A0030FB077B0883120313A8
:100FC800FF007A0884000A128A1500200A128A1182
:100FD800003A031DF02FF12FCD2F08006400800187
:0C0FE800840A0406031900340406F32FE9
:10100000FF1B0A2883137F1883170008840A03191B
:10101000FF0A080008308A000408840A82070034A6
:1010200025342E34323464340034303430340034D7
:101030005334313400345334323400345334333481
:0210400000347A
:101E7800FA007A080A128A116C250A128A150800D3
:101E8800F71B472F482F492F542F7609F800770959
:101E9800F900F80A0319F90A7808F6007908F70032
:101EA800080083120313D2004E30D1005208D30029
:101EB800D501D601DC01DD014D08C9005130CA0049
:101EC80053300A128A1574270A128A1583120313CB
:101ED80055085207D0005008840083138001080079
:101EE80083120313CB004908CC00842F4C30BF0069
:101EF8004A08C0004B080A128A1168220A128A1579
:101F0800831203134C0884000A128A150A200A1245
:101F18008A15003A031D912F922F7A2FC901CA0101
:101F28000800F700760803199A2F9B2F9E2F403040
:101F3800F8009F2FF8017708FF007F08F807780856
:101F48008038F30000300A128A1103270A128A1512
:101F58000A128A1172270A128A15003A031DB52F30
:101F6800B62FAC2F080083160313CF004E080319B1
:101F7800BE2FBF2FC22F4030D000C32FD0014F0833
:101F8800FF007F08D00750088038CB0000300A12C5
:101F98008A114A260A128A150A128A118B260A12EF
:101FA8008A15003A031DD92FDA2FD02F0800F40123
:101FB800F501701CE02FE12FE72F7208F4070318D2
:101FC800F50A7308F50701300310F20DF30DFF3E13
:101FD800031DE82F01300310F10CF00CFF3E031D28
:101FE800EF2F70087104031DFA2FFB2FDD2F7508E2
:081FF800F1007408F00008007C
:04400E00D224FF3F7A
:00000001FF
