:100000000A128A11FC2F00308A000408840A820731
:1000100000344E34073469342034533469346E3438
:1000200068343A344B34693401346E3447346934BB
:1000300061344E34673406347934203453346934AF
:100040006E3468343A34313430342F34303433340D
:100050005434003401346E342034023403346334B5
:1000600020345434683404346E34683448344B34A7
:10007000543454343A34483407346E34203402341F
:10008000063474344C34043470343A340234483412
:10009000563454343134353441340034003400346F
:1000A0001834143410341034003402340934143445
:1000B00000341C3414341E3400340E340934093432
:1000C0001D34093409340E34003404340834123435
:1000D0000134123412341E34003400340434003439
:1000E0000C34043400340434003400340E3411343D
:1000F000113411340E340034043408340434003420
:100100000C34143414341E340034003400340634F7
:1001100002341C3414341C34003499344D345334B8
:10012000533456343A342034323431343134323466
:100130003234303439343134003408340434003447
:100140000E340A340A340E34003499340234043440
:1001500001340F340A340A340E3400349934013433
:100160000A34143400341C3414341E3400349934EA
:100170000834143400340C34143418340C3400347F
:0601800099340C34003438
:10095600FA00BD2C7A0884000A128A1103200A12B2
:100966008A110A128A11E1250A128A110130FF0042
:100976007F08FA077A0884000A128A1103200A12ED
:100986008A11003A031DC82CC92CAD2C0800F700AB
:1009960076080319CF2CD02CD32C4030F800D42C59
:1009A600F8017708FF007F08F80778088038F30019
:1009B60000300A128A111C250A128A110A128A119B
:1009C600EC240A128A11003A031DEA2CEB2CE12CC6
:1009D600080083160313081688160817881783124B
:1009E6000313081588100630F000F00BF82C0000F1
:1009F6008312031388150630F000F00B002D00005B
:100A0600003083120313881B0130F1008811063071
:100A1600F000F00B0C2D000083120313881506302E
:100A2600F000F00B142D00008312031388117108D7
:100A36000800F5008316031308128812081388139A
:100A460075080319272D282D2C2D831203138814BE
:100A56002F2D8312031388100630F400F40B312D6A
:100A660000008312031308110630F400F40B392D2D
:100A760000008312031388117308F4000430031076
:100A8600F40CFF3E031D422D74080A128A115525E7
:100A96000A128A1173080F390A128A1155250A1289
:100AA6008A110800F100831603130812881208132E
:100AB60088137108F2007218612D652D83120313D5
:100AC6000816682D831203130812F2186B2D6F2D6A
:100AD600831203138816722D831203138812721958
:100AE600752D792D8312031308177C2D831203139A
:100AF6000813F2197F2D832D831203138817862D71
:100B06008312031388130630F000F00B882D0000C3
:100B16008312031388150630F000F00B902D0000A9
:100B26008312031388110800F900F8017608F7000C
:100B360002300310F70DFF3E031D9C2D0310770DA9
:100B4600403EF30000300A128A111C250A128A114F
:100B56000A128A11EC240A128A11003A031DB42DD6
:100B6600B52DAB2DD32D7808790784000A128A118A
:100B760003200A128A11F30001300A128A111C2579
:100B86000A128A110A128A11EC240A128A11003AF0
:100B9600031DCE2DCF2DC52D0130FF007F08F80790
:100BA6007808790784000A128A1103200A128A112A
:100BB600993A031DDF2DE02DB62D0800F900252EEC
:100BC600F301F30A00300A128A111C250A128A114F
:100BD6000A128A11EC240A128A11003A031DF42D16
:100BE600F52DEB2D302EF601F60A00300A128A1189
:100BF600CA240A128A11302E1030F30000300A126D
:100C06008A111C250A128A110A128A11EC240A1268
:100C16008A11003A031D102E112E072E302E790848
:100C2600F30001300A128A111C250A128A110A12CF
:100C36008A11EC240A128A11003A031D232E242E4F
:100C46001A2E302E7908083A0319FF2D023A031995
:100C5600F62D063A0319E32D122E08008316031308
:100C66008811881008110812881208138813143086
:100C7600F7007930F600F60B3E2EF70B3E2E432E8C
:100C86008312031388100811881103300A128A117F
:100C960055250A128A110D30F700FB30F600F60BC7
:100CA600522EF70B522E572E03300A128A11552553
:100CB6000A128A110D30F700FB30F600F60B612E92
:100CC600F70B612E662E03300A128A1155250A1279
:100CD6008A110D30F700FB30F600F60B702EF70B7D
:100CE600702E752E02300A128A1155250A128A11A3
:100CF6000A128A11EC240A128A11003A031D842E64
:100D0600852E7B2E2830F30000300A128A111C250E
:100D16000A128A110A128A11EC240A128A11003A5E
:100D2600031D962E972E8D2E0C30F30000300A12DE
:100D36008A111C250A128A110A128A11EC240A1237
:100D46008A11003A031DA82EA92E9F2EF301F30A3D
:100D560000300A128A111C250A128A110A128A11F7
:100D6600EC240A128A11003A031DBA2EBB2EB12EAC
:100D76000630F30000300A128A111C250A128A1165
:100D86000A128A11EC240A128A11003A031DCC2E8B
:100D9600CD2EC32E08000A128A1131260A128A1194
:100DA600F60145300A128A1197250A128A110C306B
:100DB6000A128A11E1250A128A11F60100300A1276
:100DC6008A11CA240A128A1183120313A001200869
:100DD600203E84000A128A1103200A128A110A127E
:100DE6008A11E1250A128A110130FF007F08831259
:100DF6000313A0070E302002031C022F032FEA2E36
:100E0600F601F60A00300A128A11CA240A128A1159
:100E160086300A128A11AB240A128A110B30FD00A1
:100E26002630FC005D30FB00FB0B172FFC0B172F49
:100E3600FD0B172F1E2FB9300A128A11AB240A1286
:100E46008A11F601F60AB0300A128A1197250A129B
:100E56008A11F60100300A128A11CA240A128A116E
:100E660083120313A0012008113E84000A128A117E
:100E760003200A128A110A128A11E1250A128A111E
:100E86000130FF007F0883120313A0070F302002F2
:100E9600031C4E2F4F2F362FF601F60A00300A128A
:100EA6008A11CA240A128A1183120313A001200888
:100EB600013E84000A128A1103200A128A110A12BC
:100EC6008A11E1250A128A110130FF007F08831278
:100ED6000313A00711302002031C722F732F5A2F01
:100EE6000B30FD002630FC005D30FB00FB0B792F3C
:100EF600FC0B792FFD0B792F802FB9300A128A113E
:100F0600AB240A128A110630F600A7300A128A119B
:100F160097250A128A110730F60095300A128A11AF
:100F260097250A128A110430F6009E300A128A1199
:100F360097250A128A11F60100300A128A11CA246C
:100F46000A128A1183120313A00120082E3E840080
:100F56000A128A1103200A128A110A128A11E1253D
:100F66000A128A110130FF007F0883120313A007BB
:100F76000C302002031CC02FC12FA82FF601F60A41
:100F860000300A128A11CA240A128A118312031324
:100F9600A00120083A3E84000A128A1103200A1290
:100FA6008A110A128A11E1250A128A110130FF00FC
:100FB6007F0883120313A0070B302002031CE42FC3
:100FC600E52FCC2F0B30FD002630FC005D30FB00FA
:100FD600FB0BEB2FFC0BEB2FFD0BEB2FF22FB9309E
:100FE6000A128A11AB240A128A11CE2E0A128A110B
:0A0FF600002883010A128A11CE2E92
:04400E00D224FF3F7A
:00000001FF
