:100000000A128A11FC2F00308A000408840A820731
:1000100000344E34673461347934203473346934B5
:100020006E3468343A342034313430342F34303440
:10003000333400344C346F3470343A342034443424
:100040004834443454344D345434313437344334E4
:100050005434543400344D345334533456343A34D5
:10006000203432343134313432343234303439346F
:10007000313400345434523441344E342034443416
:100080005534433420345434483449344E3448349D
:1000900000344E346F3469342034733469346E3430
:1000A00068343A3420344B344734003448344B34C9
:1000B000543454343A342034483443344D340034C6
:0400C0000C340034C8
:100B2000FA00A22D7A0884000A128A1103200A1200
:100B30008A110A128A117C260A128A110130FF00DA
:100B40007F08FA077A0884000A128A1103200A1221
:100B50008A11003A031DAD2DAE2D922D0800F7002D
:100B600076080319B42DB52DB82D4030F800B92DF5
:100B7000F8017708FF007F08F80778088038F3004D
:100B800000300A128A1101260A128A110A128A11E9
:100B9000D1250A128A11003A031DCF2DD02DC62D62
:100BA000080083160313081688160817881783127F
:100BB0000313081588100630F000F00BDD2D00003F
:100BC0008312031388150630F000F00BE52D0000AA
:100BD000003083120313881B0130F10088110630A6
:100BE000F000F00BF12D000083120313881506307E
:100BF000F000F00BF92D0000831203138811710827
:100C00000800F500831603130812881208138813CE
:100C1000750803190C2E0D2E112E83120313881440
:100C2000142E8312031388100630F400F40B162ED2
:100C300000008312031308110630F400F40B1E2E7B
:100C400000008312031388117308F40004300310AA
:100C5000F40CFF3E031D272E74080A128A113A264F
:100C60000A128A1173080F390A128A113A260A12D7
:100C70008A110800F1008316031308128812081362
:100C800088137108F2007218462E4A2E831203133D
:100C900008164D2E831203130812F218502E542EEC
:100CA000831203138816572E8312031388127219A6
:100CB0005A2E5E2E831203130817612E831203131C
:100CC0000813F219642E682E8312031388176B2EF3
:100CD0008312031388130630F000F00B6D2E000012
:100CE0008312031388150630F000F00B752E0000F8
:100CF0008312031388110800F900C02EF301F30AD0
:100D000000300A128A1101260A128A110A128A1167
:100D1000D1250A128A11003A031D8F2E902E862E9D
:100D2000CB2EF601F60A00300A128A11AF250A12FC
:100D30008A11CB2E1030F30000300A128A110126DE
:100D40000A128A110A128A11D1250A128A11003A4E
:100D5000031DAB2EAC2EA22ECB2E7908F300013052
:100D60000A128A1101260A128A110A128A11D12541
:100D70000A128A11003A031DBE2EBF2EB52ECB2EAD
:100D80007908083A03199A2E023A0319912E063A65
:100D900003197E2EAD2E08000A128A115F270A124F
:100DA0008A11F60100300A128A11AF250A128A113F
:100DB00032300A128A1190250A128A11F601F60AB7
:100DC00000300A128A11AF250A128A1123300A1242
:100DD0008A1190250A128A110B30FD002630FC0082
:100DE0005D30FB00FB0BF22EFC0BF22EFD0BF22E06
:100DF000F92E58300A128A1190250A128A11F6012A
:100E000000300A128A11AF250A128A1101300A1223
:100E10008A1190250A128A11F601F60A00300A1288
:100E20008A11AF250A128A1141300A128A119025BF
:100E30000A128A110B30FD002630FC005D30FB00E9
:100E4000FB0B202FFC0B202FFD0B202F272F5830C2
:100E50000A128A1190250A128A11F60100300A122C
:100E60008A11AF250A128A114E300A128A11902572
:100E70000A128A11F601F60A00300A128A11AF2509
:100E80000A128A1112300A128A1190250A128A1146
:100E90000B30FD002630FC005D30FB00FB0B4E2FBD
:100EA000FC0B4E2FFD0B4E2F552F58300A128A1176
:100EB00090250A128A11D12E0A128A11002883164F
:100EC0000313881188100811081288120813881358
:100ED0001430F7007930F600F60B6C2FF70B6C2FFF
:100EE000712F8312031388100811881103300A121E
:100EF0008A113A260A128A110D30F700FB30F600EB
:100F0000F60B802FF70B802F852F03300A128A11E2
:100F10003A260A128A110D30F700FB30F600F60B64
:100F20008F2FF70B8F2F942F03300A128A113A2636
:100F30000A128A110D30F700FB30F600F60B9E2FD7
:100F4000F70B9E2FA32F02300A128A113A260A129B
:100F50008A110A128A11D1250A128A11003A031D38
:100F6000B22FB32FA92F2830F30000300A128A11B4
:100F700001260A128A110A128A11D1250A128A112F
:100F8000003A031DC42FC52FBB2F0C30F3000030D7
:100F90000A128A1101260A128A110A128A11D1250F
:100FA0000A128A11003A031DD62FD72FCD2FF30135
:100FB000F30A00300A128A1101260A128A110A1253
:100FC0008A11D1250A128A11003A031DE82FE92F50
:100FD000DF2F0630F30000300A128A1101260A12B0
:100FE0008A110A128A11D1250A128A11003A031DA8
:100FF000FA2FFB2FF12F080083010A128A11CC2E41
:04400E00D224FF3F7A
:00000001FF
