:100000000A128A11FC2F00308A000408840A820731
:1000100000340E34093409341D34093409340E34E3
:1000200000340C3412340C341E3410341E340434B6
:1000300000340C34023405341234123412340C34CB
:100040000034993443344E3420340034693401345C
:100050006E342034543402344B3448344F344134F9
:0200600000346A
:100B5200FA00BB2D7A0884000A128A1103200A12B5
:100B62008A110A128A1195260A128A110130FF008F
:100B72007F08FA077A0884000A128A1103200A12EF
:100B82008A11003A031DC62DC72DAB2D0800F700B0
:100B920076080319CD2DCE2DD12D4030F800D22D5F
:100BA200F8017708FF007F08F80778088038F3001B
:100BB20000300A128A111A260A128A110A128A119E
:100BC200EA250A128A11003A031DE82DE92DDF2DCC
:100BD200080083160313081688160817881783124D
:100BE2000313081588100630F000F00BF62D0000F4
:100BF2008312031388150630F000F00BFE2D00005F
:100C0200003083120313881B0130F1008811063073
:100C1200F000F00B0A2E0000831203138815063031
:100C2200F000F00B122E00008312031388117108DA
:100C32000800F5008316031308128812081388139C
:100C420075080319252E262E2A2E831203138814C3
:100C52002D2E8312031388100630F400F40B2F2E6E
:100C620000008312031308110630F400F40B372E30
:100C720000008312031388117308F4000430031078
:100C8200F40CFF3E031D402E74080A128A115326EB
:100C92000A128A1173080F390A128A1153260A128C
:100CA2008A110800F1008316031308128812081330
:100CB20088137108F20072185F2E632E83120313D9
:100CC2000816662E831203130812F218692E6D2E6F
:100CD200831203138816702E83120313881272195B
:100CE200732E772E8312031308177A2E831203139F
:100CF2000813F2197D2E812E831203138817842E76
:100D02008312031388130630F000F00B862E0000C6
:100D12008312031388150630F000F00B8E2E0000AC
:100D22008312031388110800F900D92EF301F30A84
:100D320000300A128A111A260A128A110A128A111C
:100D4200EA250A128A11003A031DA82EA92E9F2E07
:100D5200E42EF601F60A00300A128A11C8250A1298
:100D62008A11E42E1030F30000300A128A111A267A
:100D72000A128A110A128A11EA250A128A11003A03
:100D8200031DC42EC52EBB2EE42E7908F3000130BC
:100D92000A128A111A260A128A110A128A11EA25DD
:100DA2000A128A11003A031DD72ED82ECE2EE42E17
:100DB2007908083A0319B32E023A0319AA2E063A01
:100DC2000319972EC62E08000A128A115F270A12EB
:100DD2008A11FB014030F30000300A128A111A26F0
:100DE2000A128A110A128A11EA250A128A11003A93
:100DF200031DFC2EFD2EF32E1B2F7B08013E8400CB
:100E02000A128A1103200A128A11F30001300A120F
:100E12008A111A260A128A110A128A11EA250A125C
:100E22008A11003A031D162F172F0D2F0130FF00D4
:100E32007F08FB077B08013E84000A128A11032007
:100E42000A128A11993A031D272F282FFE2E0C30E1
:100E52000A128A1195260A128A11F60105300A121F
:100E62008A11C8250A128A1124300A128A11A92568
:100E72000A128A11F601F60A02300A128A11C825EC
:100E82000A128A11FB017B081A3E84000A128A1197
:100E920003200A128A110A128A1195260A128A114D
:100EA2000130FF007F08FB070A307B02031C5A2F28
:100EB2005B2F442F5B2F0A128A110028831603131B
:100EC2008811881008110812881208138813143028
:100ED200F7007930F600F60B6C2FF70B6C2F712FA1
:100EE2008312031388100811881103300A128A1121
:100EF20053260A128A110D30F700FB30F600F60B6A
:100F0200802FF70B802F852F03300A128A11532668
:100F12000A128A110D30F700FB30F600F60B8F2F04
:100F2200F70B8F2F942F03300A128A1153260A12BD
:100F32008A110D30F700FB30F600F60B9E2FF70BEF
:100F42009E2FA32F02300A128A1153260A128A11E7
:100F52000A128A11EA250A128A11003A031DB22FD7
:100F6200B32FA92F2830F30000300A128A111A2653
:100F72000A128A110A128A11EA250A128A11003A01
:100F8200031DC42FC52FBB2F0C30F30000300A12F3
:100F92008A111A260A128A110A128A11EA250A12DB
:100FA2008A11003A031DD62FD72FCD2FF301F30A52
:100FB20000300A128A111A260A128A110A128A119A
:100FC200EA250A128A11003A031DE82FE92FDF2FC2
:100FD2000630F30000300A128A111A260A128A1108
:100FE2000A128A11EA250A128A11003A031DFA2FFF
:0E0FF200FB2FF12F080083010A128A11E52E51
:04400E00D224FF3F7A
:00000001FF
