:100000000A128A11FC2F00308A000408840A820731
:10001000003420344B346934203474347534203443
:100020006434613463342034623469346534743444
:08003000203400340C340034CC
:100B8200FA00D32D7A0884000A128A1103200A126D
:100B92008A110A128A11AD260A128A110130FF0047
:100BA2007F08FA077A0884000A128A1103200A12BF
:100BB2008A11003A031DDE2DDF2DC32D0800F70038
:100BC20076080319E52DE62DE92D4030F800EA2DCF
:100BD200F8017708FF007F08F80778088038F300EB
:100BE20000300A128A1132260A128A110A128A1156
:100BF20002260A128A11003A031D002E012EF72D39
:100C0200080083160313081688160817881783121C
:100C12000313081588100630F000F00B0E2E0000AA
:100C22008312031388150630F000F00B162E000015
:100C3200003083120313881B0130F1008811063043
:100C4200F000F00B222E00008312031388150630E9
:100C5200F000F00B2A2E0000831203138811710892
:100C62000800F5008316031308128812081388136C
:100C7200750803193D2E3E2E422E8312031388144B
:100C8200452E8312031388100630F400F40B472E0E
:100C920000008312031308110630F400F40B4F2EE8
:100CA20000008312031388117308F4000430031048
:100CB200F40CFF3E031D582E74080A128A116B268B
:100CC2000A128A1173080F390A128A116B260A1244
:100CD2008A110800F1008316031308128812081300
:100CE20088137108F2007218772E7B2E8312031379
:100CF20008167E2E831203130812F218812E852EF7
:100D0200831203138816882E831203138812721912
:100D12008B2E8F2E831203130817922E8312031326
:100D22000813F219952E992E8312031388179C2EFD
:100D32008312031388130630F000F00B9E2E00007E
:100D42008312031388150630F000F00BA62E000064
:100D52008312031388110800F900F12EF301F30A3C
:100D620000300A128A1132260A128A110A128A11D4
:100D720002260A128A11003A031DC02EC12EB72E76
:100D8200FC2EF601F60A00300A128A11E0250A1238
:100D92008A11FC2E1030F30000300A128A1132261A
:100DA2000A128A110A128A1102260A128A11003ABA
:100DB200031DDC2EDD2ED32EFC2E7908F30001302C
:100DC2000A128A1132260A128A110A128A1102267C
:100DD2000A128A11003A031DEF2EF02EE62EFC2E87
:100DE2007908083A0319CB2E023A0319C22E063AA1
:100DF2000319AF2EDE2E08000A128A115F270A128B
:100E02008A1112300A128A11AD260A128A11F601CB
:100E120000300A128A11E0250A128A1101300A12E0
:100E22008A11C1250A128A11F601F60A04300A1241
:100E32008A11E0250A128A11E0300A128A11AD26BF
:100E42000A128A11F601F60A06300A128A11E02500
:100E52000A128A11E2300A128A11AD260A128A1186
:100E6200F601F60A08300A128A11E0250A128A11DE
:100E7200E3300A128A11AD260A128A11F601F60A25
:100E82000A300A128A11E0250A128A11E5300A1282
:100E92008A11AD260A128A11F601F60A0C300A12DC
:100EA2008A11E0250A128A11E4300A128A11AD264B
:100EB2000A128A115B2F0A128A1100288316031361
:100EC2008811881008110812881208138813143028
:100ED200F7007930F600F60B6C2FF70B6C2F712FA1
:100EE2008312031388100811881103300A128A1121
:100EF2006B260A128A110D30F700FB30F600F60B52
:100F0200802FF70B802F852F03300A128A116B2650
:100F12000A128A110D30F700FB30F600F60B8F2F04
:100F2200F70B8F2F942F03300A128A116B260A12A5
:100F32008A110D30F700FB30F600F60B9E2FF70BEF
:100F42009E2FA32F02300A128A116B260A128A11CF
:100F52000A128A1102260A128A11003A031DB22FBE
:100F6200B32FA92F2830F30000300A128A1132263B
:100F72000A128A110A128A1102260A128A11003AE8
:100F8200031DC42FC52FBB2F0C30F30000300A12F3
:100F92008A1132260A128A110A128A1102260A12AA
:100FA2008A11003A031DD62FD72FCD2FF301F30A52
:100FB20000300A128A1132260A128A110A128A1182
:100FC20002260A128A11003A031DE82FE92FDF2FA9
:100FD2000630F30000300A128A1132260A128A11F0
:100FE2000A128A1102260A128A11003A031DFA2FE6
:0E0FF200FB2FF12F080083010A128A11FD2E39
:04400E00D224FF3F7A
:00000001FF
