:100000000A128A11FC2F00308A000408840A820731
:1000100000340C34203444344834203443344F34D6
:100020004E34473420344E34473448344934453410
:1000300050340A3420342A342A342034543450348E
:100040002034483443344D3420342A342A34203484
:0200500000347A
:100C28000A128A115F270A128A1101300A128A11E0
:100C380023260A128A111F2E0A128A110028FA0086
:100C4800352E7A0884000A128A1103200A128A11A2
:100C58000A128A110F270A128A110130FF007F0831
:100C6800FA077A0884000A128A1103200A128A11E4
:100C7800003A031D402E412E252E0800F700760865
:100C88000319472E482E4B2E4030F8004C2EF80101
:100C98007708FF007F08F80778088038F3000030ED
:100CA8000A128A1194260A128A110A128A116426D3
:100CB8000A128A11003A031D622E632E592E08006B
:100CC8008316031308168816081788178312031348
:100CD800081588100630F000F00B702E0000831203
:100CE800031388150630F000F00B782E0000003052
:100CF80083120313881B0130F10088110630F000BD
:100D0800F00B842E00008312031388150630F000C0
:100D1800F00B8C2E00008312031388117108080051
:100D2800F500831603130812881208138813750830
:100D380003199F2EA02EA42E831203138814A72E06
:100D48008312031388100630F400F40BA92E000058
:100D58008312031308110630F400F40BB12E0000BF
:100D68008312031388117308F40004300310F40C81
:100D7800FF3E031DBA2E74080A128A11CD260A12E4
:100D88008A1173080F390A128A11CD260A128A119C
:100D98000800F10083160313081288120813881339
:100DA8007108F2007218D92EDD2E8312031308166B
:100DB800E02E831203130812F218E32EE72E831293
:100DC80003138816EA2E8312031388127219ED2E64
:100DD800F12E831203130817F42E8312031308133A
:100DE800F219F72EFB2E831203138817FE2E831297
:100DF800031388130630F000F00B002F0000831255
:100E0800031388150630F000F00B082F000083123A
:100E1800031388110800F900532FF301F30A003077
:100E28000A128A1194260A128A110A128A11642651
:100E38000A128A11003A031D222F232F192F5E2F21
:100E4800F601F60A00300A128A1142260A128A119D
:100E58005E2F1030F30000300A128A1194260A120D
:100E68008A110A128A1164260A128A11003A031D8D
:100E78003E2F3F2F352F5E2F7908F30001300A12DD
:100E88008A1194260A128A110A128A1164260A12F1
:100E98008A11003A031D512F522F482F5E2F7908CF
:100EA800083A03192D2F023A0319242F063A031979
:100EB800112F402F0800831603138811881008117A
:100EC80008128812081388131430F7007930F600D6
:100ED800F60B6C2FF70B6C2F712F831203138810EE
:100EE8000811881103300A128A11CD260A128A11B4
:100EF8000D30F700FB30F600F60B802FF70B802F34
:100F0800852F03300A128A11CD260A128A110D3054
:100F1800F700FB30F600F60B8F2FF70B8F2F942F6F
:100F280003300A128A11CD260A128A110D30F700F1
:100F3800FB30F600F60B9E2FF70B9E2FA32F0230E7
:100F48000A128A11CD260A128A110A128A116426F7
:100F58000A128A11003A031DB22FB32FA92F283085
:100F6800F30000300A128A1194260A128A110A1212
:100F78008A1164260A128A11003A031DC42FC52F4C
:100F8800BB2F0C30F30000300A128A1194260A1283
:100F98008A110A128A1164260A128A11003A031D5C
:100FA800D62FD72FCD2FF301F30A00300A128A115A
:100FB80094260A128A110A128A1164260A128A11C0
:100FC800003A031DE82FE92FDF2F0630F300003029
:100FD8000A128A1194260A128A110A128A116426A0
:100FE8000A128A11003A031DFA2FFB2FF12F08006D
:080FF80083010A128A11142E74
:04400E00D224FF3F7A
:00000001FF
