:100000000A128A11EC2FFF1B0D2883137F18831708
:100010000008840A0319FF0A080000308A00040857
:10002000840A820700345434683404346E346834EB
:10003000203443346F3475346E3474346534723420
:100040002034313400340034003418341434103483
:100050001034003402340934143400341C341434A1
:100060001E3400340E34093409341D340934093483
:100070000E3400340434083412340134123412348F
:100080001E3400340034043400340C34043400349E
:100090000434003400340E341134113411340E346D
:1000A000003404340834043400340C34143414346C
:1000B0001E34003400340034063402341C3414344A
:1000C0001C340034993425342E34323464340034F2
:0600D0003034303400342E
:1002D400FA007A080A128A1191230A128A11080074
:1002E40064008001840A0406031900340406732997
:1002F400F71B7D297E297F298A297609F800770949
:10030400F900F80A0319F90A7808F6007908F700E1
:10031400080083120313D2004E30D1005208D300D8
:10032400D501D601DC01DD014D08C9005130CA00F8
:1003340053300A128A11AA210A128A118312031352
:1003440055085207D0005008840083138001080028
:1003540083120313CB004908CC00BA294C30BF00E8
:100364004A08C0004B080A128A1183260A128A110D
:10037400831203134C0884000A128A110D200A12F6
:100384008A11003A031DC729C829B029C901CA0125
:100394000800F70076080319D029D129D429403060
:1003A400F800D529F8017708FF007F08F8077808D6
:1003B4008038F30000300A128A1192220A128A113C
:1003C4000A128A1162220A128A11003A031DEB29C9
:1003D400EC29E2290800F401F501701CF229F32943
:1003E400F9297208F4070318F50A7308F5070130B0
:1003F4000310F20DF30DFF3E031DFA290130031023
:10040400F10CF00CFF3E031D012A70087104031D5A
:100414000C2A0D2AEF297508F1007408F000080071
:10042400272A7B08FF007A0884000A128A11032015
:100434000A128A110A128A1191230A128A110130AE
:10044400FA070318FB0A0030FB077B088312031327
:10045400FF007A0884000A128A1103200A128A1102
:10046400003A031D362A372A132A0800831203137D
:10047400AB00A901AA01542A2808A600A70126084E
:10048400FB002708FC002508FD000A128A119224AB
:100494000A128A11013083120313A9070318AA0A46
:1004A4000030AA0729082B07A60026088400831316
:1004B4000008A8002808031D602A612A3E2A0800B3
:1004C4008316031308168816081788178312031354
:1004D400081588100630F000F00B6E2A0000831215
:1004E400031388150630F000F00B762A0000003064
:1004F40083120313881B0130F10088110630F000C9
:10050400F00B822A00008312031388150630F000D2
:10051400F00B8A2A00008312031388117108080063
:10052400F50083160313081288120813881375083C
:1005340003199D2A9E2AA22A831203138814A52A2A
:100544008312031388100630F400F40BA72A00006A
:100554008312031308110630F400F40BAF2A0000D1
:100564008312031388117308F40004300310F40C8D
:10057400FF3E031DB82A74080A128A1105230A12C1
:100584008A1173080F390A128A1105230A128A1173
:10059400080083120313B200AE1FD12AD22AD42A30
:1005A400AD01AE01B001B101EC2A2030FB000030F6
:1005B400FC00831203133208FD000A128A119224EC
:1005C4000A128A11013083120313B0070318B10A07
:1005D4000030B1073108803AAF002E08803A2F026C
:1005E400031DF62A2D083002031CF92AFA2AD72AF9
:1005F400831203133208A5002C080A128A11382228
:100604000A128A110800F1008316031308128812D3
:10061400081388137108F2007218112B152B83121A
:1006240003130816182B831203130812F2181B2B3A
:100634001F2B831203138816222B83120313881291
:100644007219252B292B8312031308172C2B8312C1
:1006540003130813F2192F2B332B83120313881758
:10066400362B8312031388130630F000F00B382B5B
:1006740000008312031388150630F000F00B402BA2
:1006840000008312031388110800F800F9017608AA
:10069400F70002300310F70DFF3E031D4C2B03102F
:1006A400770D403EF30000300A128A1192220A129A
:1006B4008A110A128A1162220A128A11003A031D4F
:1006C400642B652B5B2B832B7908780784000A1233
:1006D4008A110D200A128A11F30001300A128A11BC
:1006E40092220A128A110A128A1162220A128A11A9
:1006F400003A031D7E2B7F2B752B0130FF007F08F2
:10070400F9077908780784000A128A110D200A1261
:100714008A11993A031D8F2B902B662B0800F90040
:10072400D52BF301F30A00300A128A1192220A121D
:100734008A110A128A1162220A128A11003A031DCE
:10074400A42BA52B9B2BE02BF601F60A00300A12F2
:100754008A11CB210A128A11E02B1030F3000030E9
:100764000A128A1192220A128A110A128A11622228
:100774000A128A11003A031DC02BC12BB72BE02BA0
:100784007908F30001300A128A1192220A128A119E
:100794000A128A1162220A128A11003A031DD32B0B
:1007A400D42BCA2BE02B7908083A0319AF2B023A51
:1007B4000319A62B063A0319932BC22B0800FB003E
:1007C400F901FA017B0884008313000884000A12EB
:1007D4008A110D200A128A112A3A031DF22BF32BD7
:1007E400232C0130FF007B0884007F0880077608F3
:1007F40084000008FF00023080077F08840000089E
:10080400F900840A0008FA00342C7A08F100790807
:10081400F0000A30F2000030F3000A128A11ED21D0
:100824000A128A1178087007F900003003180130A1
:100834007107FA000130FF007B0884007F088313EE
:1008440080077B088400000884000A128A110D20A6
:100854000A128A11D03EF8000A307802031C332CA5
:10086400342C072C7A08F7007908F6000800F50103
:10087400F31F3D2C3E2C452CF209F309F20A03190F
:10088400F30AF501F50AF11F482C492C4E2CF00906
:10089400F109F00A0319F10A700871040319532CC1
:1008A400542C832CF401F40A622C01300310F00D53
:1008B400F10DFF3E031D582C0130FF007F08F407A3
:1008C400F11F652C662C572C71087302031D6C2CC8
:1008D40070087202031C6F2C702C762C7008F202C4
:1008E4007108031CF303F30201300310F10CF00C44
:1008F400FF3E031D772C0130F402031D822C832C50
:10090400662C75080319872C882C8D2CF209F309A1
:10091400F20A0319F30A7308F1007208F0000800E0
:100924007D080319962C972C9C2C7D08031D9B2C69
:100934009C2CA32C7B080A128A116A210A128A11A0
:10094400EB2C7D08093E84008313000883120313F3
:10095400A000840A0008A100200821040319B32C74
:10096400B42CD22C7D08093E84000008A000840A1F
:100974000008A1007D08023E84000008A200840A49
:100984000008A3002308803AA4002108803A240226
:10099400031DCE2C200822020318D12CD22CEB2CC0
:1009A4007D08023E84008313000883120313A00011
:1009B4007D08840000082007A100210884007B082A
:1009C40080007D08023E840001308007840A0318F9
:1009D400800A0800F501F11FF02CF12CF82CF00925
:1009E400F109F00A0319F10AF501F50AF31FFB2CCA
:1009F400FC2C052DF209F309F20A0319F30A01305C
:100A0400FF007F08F506F601F70170087104031969
:100A14000C2D0D2D442DF401F40A1B2D013003106F
:100A2400F00DF10DFF3E031D112D0130FF007F0875
:100A3400F407F11F1E2D1F2D102D01300310F60D8C
:100A4400F70DFF3E031D202D71087302031D2C2D8D
:100A540070087202031C2F2D302D372D7008F202FE
:100A64007108031CF303F302761401300310F10C34
:100A7400F00CFF3E031D382D0130F402031D432DFD
:100A8400442D1F2D75080319482D492D4E2DF609A7
:100A9400F709F60A0319F70A7708F1007608F00057
:100AA40008008316031789018801831603130714AA
:100AB400831203138E018F010C109014901183166E
:100AC40003130C100B138B138312031390121012C5
:100AD400101110140A128A11E6250A128A11F6015D
:100AE40010300A128A1147230A128A110C300A1292
:100AF4008A1191230A128A11F60100300A128A110E
:100B0400CB210A128A1183120313E201E301620862
:100B1400013E84000A128A110D200A128A110A1257
:100B24008A1191230A128A11013083120313E207F6
:100B34000318E30A0030E307003063020F3003199F
:100B44006202031CA62DA72D892DF601F60A083092
:100B54000A128A11CB210A128A115630FA00803007
:100B6400FB000A128A1112220A128A11003083121F
:100B740003130F021F3003190E02031CC22DC32DD1
:100B8400C52D8E018F015130CD000F08CF000E0806
:100B9400CE005E300A128A118B210A128A11F601E4
:100BA400F60A08300A128A11CB210A128A115E3021
:100BB400FA000030FB000A128A1112220A128A116A
:100BC400B82D0A128A11002883160313881188107D
:100BD400081108128812081388131430F7007930AA
:100BE400F600F60BF32DF70BF32DF82D83120313F8
:100BF40088100811881103300A128A1105230A1279
:100C04008A110D30F700FB30F600F60B072EF70BB8
:100C1400072E0C2E03300A128A1105230A128A1198
:100C24000D30F700FB30F600F60B162EF70B162EE0
:100C34001B2E03300A128A1105230A128A110D3061
:100C4400F700FB30F600F60B252EF70B252E2A2E87
:100C540002300A128A1105230A128A110A128A1111
:100C640062220A128A11003A031D392E3A2E302EBE
:100C74002830F30000300A128A1192220A128A11D3
:100C84000A128A1162220A128A11003A031D4B2E9B
:100C94004C2E422E0C30F30000300A128A1192229C
:100CA4000A128A110A128A1162220A128A11003A5D
:100CB400031D5D2E5E2E542EF301F30A00300A123A
:100CC4008A1192220A128A110A128A1162220A12C3
:100CD4008A11003A031D6F2E702E662E0630F30023
:100CE40000300A128A1192220A128A110A128A11F7
:100CF40062220A128A11003A031D812E822E782E56
:100D0400080083120313C7003F08840083130008FC
:100D140084000A128A110D200A128A11253A031D31
:100D2400942E952E0C2F0130FF003F0884007F087D
:100D34008007E401E5010310003003180130E800E6
:100D4400FF30E600FF30E7003F088400000884001D
:100D54000A128A110D200A128A112E3A031DB32E8B
:100D6400B42EC82E0130FF003F0884007F0880079E
:100D74004008F6003F080A128A11E1230A128A1178
:100D8400770883120313E7007608E6003F0884001F
:100D940083130008C800480884000A128A110D2031
:100DA4000A128A11643A0319D82ED92EE52E48085E
:100DB40084000A128A110D200A128A11693A031D4D
:100DC400E42EE52E022F400884000008FF000230C4
:100DD40080077F0884000008C300840A0008C40058
:100DE4003F0884004808013E80004408B4004308DA
:100DF400B30047080A128A1124270A128A11232FE2
:100E04000130FF00831203133F0884007F0883131B
:100E14008007232F3F088400000884000A128A11E7
:100E24000D200A128A11C100C2014108FB004208C8
:100E3400FC004708FD000A128A1192240A128A1142
:100E4400022F080083120313B700B41B2A2F2C2F80
:100E540001302D2F0030BC00E71F312F322F372FE8
:100E64000130BA000030BB003B2F6708BB006608A6
:100E7400BA006508B9006408B8003C080319432F98
:100E8400442F5A2FFF30B8070318B90AFF30B907A7
:100E94003C08031D4E2F4F2F542F2B30B50000302C
:100EA400B600582F2D30B5000030B6003508BC0010
:100EB4001F30BD000030BE0083160313BF01A82FEE
:100EC400FF3083120313BD070318BE0AFF30BE07A9
:100ED4003D08A03E84000A30F0000030F1003408E0
:100EE400F3003308F2000A128A1139240A128A1113
:100EF4007108F7007008F6000A128A117A210A12A2
:100F04008A117608303E83138000FF308312031366
:100F1400BA070318BB0AFF30BB07FF30B807031832
:100F2400B90AFF30B9070A30F0000030F100340884
:100F3400F3003308F2000A128A11EC240A128A110F
:100F4400710883120313B4007008B30083123E08BF
:100F5400803AFF0080307F02031DB22F01303D0232
:100F6400031CB52FB62FCB2F83120313330834047D
:100F7400031DBD2FBE2F622F3B08803AFF00803037
:100F84007F02031DC72F01303A020318CA2FCB2F4B
:100F9400622F831203133C080319D12FD22FDE2FA3
:100FA400FF30BD070318BE0AFF30BE073D08A03E50
:100FB40084003C08831380003D08A03EAC0039083F
:100FC400AE003808AD0037080A128A11CB220A1283
:100FD4008A11080083120313E401E501E601E70125
:100FE400E8018313A0308400C0300A128A117221F0
:0C0FF4000A128A1183010A128A11532D7F
:04400E00D224FF3F7A
:00000001FF
