:100000000A128A11FC2F00308A000408840A820731
:1000100000344234063469342034543407347034A4
:100020002034543469346D3465347234313454348A
:10003000003401346E342034023403346334203409
:100040005434683404346E3468340034003400347A
:100050001834143410341034003402340934143495
:1000600000341C3414341E3400340E340934093482
:100070001D34093409340E34003404340834123485
:100080000134123412341E34003400340434003489
:100090000C34043400340434003400340E3411348D
:1000A000113411340E340034043408340434003470
:1000B0000C34143414341E3400340834143408342A
:1000C00014341C3414340834003499340C3400349F
:1007FA001830F30000300A128A11F5240A128A11FD
:10080A0008001C30F30000300A128A11F5240A127B
:10081A008A110800D030F0000730F1000A128A115C
:10082A009E240A128A110800FA002B2C7A088400E6
:10083A000A128A1103200A128A110A128A1106263A
:10084A000A128A110130FF007F08FA077A08840029
:10085A000A128A1103200A128A11003A031D362C41
:10086A00372C1B2C0800F700760803193D2C3E2C68
:10087A00412C4030F800422CF8017708FF007F082D
:10088A00F80778088038F30000300A128A11F52434
:10089A000A128A110A128A11C5240A128A11003A06
:1008AA00031D582C592C4F2C0800F901FA016D2C04
:1008BA000A128A11FD230A128A110A128A110F24B6
:1008CA000A128A110130F9070318FA0A0030FA07E6
:1008DA007A08803AF8007708803A7802031D772C64
:1008EA0076087902031C7A2C7B2C5D2C0800F9010E
:1008FA00FA018F2C0A128A1106240A128A110A1284
:10090A008A110F240A128A110130F9070318FA0A08
:10091A000030FA077A08803AF8007708803A7802B5
:10092A00031D992C76087902031C9C2C9D2C7F2C84
:10093A000800B62CFF30831203138F00E7308E00B5
:10094A000F088F000E088E000C1090108B120B13DC
:10095A008B1390161012101110140C1CB52CB62CF7
:10096A00B22C0130F0020030031CF103F102700ACC
:10097A00031DC32C710A031DC32CC42C9F2C080011
:10098A008316031308168816081788178312031389
:10099A00081588100630F000F00BD12C00008312E5
:1009AA00031388150630F000F00BD92C0000003034
:1009BA0083120313881B0130F10088110630F000FE
:1009CA00F00BE52C00008312031388150630F000A3
:1009DA00F00BED2C00008312031388117108080034
:1009EA00F500831603130812881208138813750872
:1009FA000319002D012D052D831203138814082DC8
:100A0A008312031388100630F400F40B0A2D000039
:100A1A008312031308110630F400F40B122D0000A0
:100A2A008312031388117308F40004300310F40CC2
:100A3A00FF3E031D1B2D74080A128A112E250A1265
:100A4A008A1173080F390A128A112E250A128A117D
:100A5A000800F1008316031308128812081388137A
:100A6A007108F20072183A2D3E2D831203130816EC
:100A7A00412D831203130812F218442D482D8312B4
:100A8A00031388164B2D83120313881272194E2DE5
:100A9A00522D831203130817552D831203130813BB
:100AAA00F219582D5C2D8312031388175F2D8312B8
:100ABA00031388130630F000F00B612D0000831237
:100ACA00031388150630F000F00B692D000083121D
:100ADA00031388110800F800F9017608F7000230BC
:100AEA000310F70DFF3E031D752D0310770D403ED1
:100AFA00F30000300A128A11F5240A128A110A1226
:100B0A008A11C5240A128A11003A031D8D2D8E2DD1
:100B1A00842DAC2D7908780784000A128A110320E3
:100B2A000A128A11F30001300A128A11F5240A12F4
:100B3A008A110A128A11C5240A128A11003A031D5F
:100B4A00A72DA82D9E2D0130FF007F08F9077908EF
:100B5A00780784000A128A1103200A128A11993A24
:100B6A00031DB82DB92D8F2D0800F60100300A1289
:100B7A008A1138240A128A11FA01FB017A080F3EF7
:100B8A0084000A128A1103200A128A110A128A118F
:100B9A0006260A128A110130FA070318FB0A0030E6
:100BAA00FB0700307B020E3003197A02031CDE2D8C
:100BBA00DF2DC32DF601F60A00300A128A113824F5
:100BCA000A128A11FC01FD017C08013E84000A1206
:100BDA008A1103200A128A110A128A1106260A1297
:100BEA008A110130FC070318FD0A0030FD070030A6
:100BFA007D020E3003197C02031C042E052EE92DFA
:100C0A000800F9004A2EF301F30A00300A128A1189
:100C1A00F5240A128A110A128A11C5240A128A11A3
:100C2A00003A031D192E1A2E102E552EF601F60A19
:100C3A0000300A128A1138240A128A11552E1030ED
:100C4A00F30000300A128A11F5240A128A110A12D4
:100C5A008A11C5240A128A11003A031D352E362E2E
:100C6A002C2E552E7908F30001300A128A11F52428
:100C7A000A128A110A128A11C5240A128A11003A22
:100C8A00031D482E492E3F2E552E7908083A03197E
:100C9A00242E023A03191B2E063A0319082E372E60
:100CAA00080083120313A001A101C62EF601003029
:100CBA000A128A1138240A128A1183120313A20112
:100CCA00A30122080F3E84000A128A1103200A1285
:100CDA008A110A128A1106260A128A11013083120F
:100CEA000313A2070318A30A0030A3070030230244
:100CFA000E3003192202031C832E842E662EF6015F
:100D0A00F60A00300A128A1138240A128A1183124A
:100D1A000313A401A5012408013E84000A128A11C2
:100D2A0003200A128A110A128A1106260A128A1145
:100D3A00013083120313A4070318A50A0030A5077C
:100D4A00003025020E3003192402031CAD2EAE2EEC
:100D5A00902E0A128A110F240A128A115E300A1280
:100D6A008A1119240A128A110A128A110F240A12E4
:100D7A008A11013083120313A0070318A10A003055
:100D8A00A1077C082102031DCC2E7B082002031C2C
:100D9A00CF2ED02E5B2E08000A128A115F270A1264
:100DAA008A11F6011D300A128A1170250A128A1157
:100DBA000C300A128A1106260A128A110330FB0025
:100DCA000030FC000A128A1156260A128A115E3075
:100DDA000A128A1119240A128A1183120313A6010C
:100DEA00A7010A128A11BA250A128A110A128A114D
:100DFA000F240A128A111030F6000030F7000A1286
:100E0A008A115A240A128A115E300A128A11192486
:100E1A000A128A11013083120313A6070318A70ABC
:100E2A000030A7072708803AFF0080307F02031DA1
:100E3A00202F02302602031C232F242FF62E831282
:100E4A000313A801A9010A128A11BA250A128A11E2
:100E5A000A128A110F240A128A111030F600003081
:100E6A00F7000A128A117C240A128A115E300A12C9
:100E7A008A1119240A128A11013083120313A8074E
:100E8A000318A90A0030A9072908803AFF00803010
:100E9A007F02031D522F02302802031C552F562FA2
:100EAA00282F0A128A11BA250A128A115B2F0A12EE
:100EBA008A11002883160313881188100811081252
:100ECA008812081388131430F7007930F600F60BED
:100EDA006C2FF70B6C2F712F8312031388100811D4
:100EEA00881103300A128A112E250A128A110D302E
:100EFA00F700FB30F600F60B802FF70B802F852FBB
:100F0A0003300A128A112E250A128A110D30F700AF
:100F1A00FB30F600F60B8F2FF70B8F2F942F033031
:100F2A000A128A112E250A128A110D30F700FB3097
:100F3A00F600F60B9E2FF70B9E2FA32F02300A12F4
:100F4A008A112E250A128A110A128A11C5240A1236
:100F5A008A11003A031DB22FB32FA92F2830F300AC
:100F6A0000300A128A11F5240A128A110A128A1109
:100F7A00C5240A128A11003A031DC42FC52FBB2F9C
:100F8A000C30F30000300A128A11F5240A128A1171
:100F9A000A128A11C5240A128A11003A031DD62F91
:100FAA00D72FCD2FF301F30A00300A128A11F52444
:100FBA000A128A110A128A11C5240A128A11003ADF
:100FCA00031DE82FE92FDF2F0630F30000300A1245
:100FDA008A11F5240A128A110A128A11C5240A12E0
:100FEA008A11003A031DFA2FFB2FF12F0800830103
:060FFA000A128A11D12E3B
:04400E00D224FF3F7A
:00000001FF
