:060000000A128A11FC2F18
:100E2400831603178801890183160313880183122B
:100E340003138801203083160313860008308312BD
:100E4400031386000330F2000830F1007730F0001D
:100E5400F00B2A2FF10B2A2FF20B2A2F20308316A6
:100E64000313860010308312031386000330F2004C
:100E74000830F1007730F000F00B3E2FF10B3E2FDD
:100E8400F20B3E2F083083160313860010308312B2
:100E9400031386000330F2000830F1007730F000CD
:100EA400F00B522FF10B522FF20B522F08308316F6
:100EB4000313860020308312031386000330F200EC
:100EC4000830F1007730F000F00B662FF10B662F3D
:100ED400F20B662F10308316031386002030831222
:100EE400031386000330F2000830F1007730F0007D
:100EF400F00B7A2FF10B7A2FF20B7A2F1030831626
:100F04000313860008308312031386000330F200B3
:100F14000830F1007730F000F00B8E2FF10B8E2F9C
:100F2400F20B8E2F103083160313860020308312A9
:100F3400031386000330F2000830F1007730F0002C
:100F4400F00BA22FF10BA22FF20BA22F0830831665
:100F54000313860020308312031386000330F2004B
:100F64000830F1007730F000F00BB62FF10BB62FFC
:100F7400F20BB62F08308316031386001030831249
:100F8400031386000330F2000830F1007730F000DC
:100F9400F00BCA2FF10BCA2FF20BCA2F2030831685
:100FA4000313860010308312031386000330F2000B
:100FB4000830F1007730F000F00BDE2FF10BDE2F5C
:100FC400F20BDE2F203083160313860008308312C1
:100FD400031386000330F2000830F1007730F0008C
:100FE400F00BF22FF10BF22FF20BF22F1C2F0A123F
:0C0FF4008A11002883010A128A11122FB2
:04400E00F220FF3F5E
:00000001FF
