:100000000A128A11FC2F00308A000408840A820731
:1000100000345434003401346E3420340234033458
:10002000633420345434683404346E3468345434C3
:1000300005346D3420346234693406347434003449
:1000400000340034183414341034103400340234C2
:100050000934143400341C3414340E3400340E3497
:10006000093409341D34093409340E34003404349D
:10007000083412340134123412341E340034003483
:10008000043400340C3404340034043400340034B8
:1000900000341C3414341E34003408340034083462
:1000A00014340834143418340C3408340034003454
:1000B0000034063402341C3414341C3400349934B3
:1000C000663420343D34203431346B3448347A344F
:1000D0000034663420343D34203432346B344834B8
:1000E0007A340034443420343D34203433343034D2
:1000F00025340034443420343D3420343834303412
:08010000253400340C340034F6
:1008B400FA006C2C7A0884000A128A1103200A12A6
:1008C4008A110A128A11B1250A128A110130FF0015
:1008D4007F08FA077A0884000A128A1103200A1290
:1008E4008A11003A031D772C782C5C2C080083169F
:1008F400031789018801FF308316031386008113CF
:10090400FF30950009108312031309140A128A1187
:1009140001260A128A110A128A115B260A128A1106
:100924000A128A115C270A128A110A128A110028F3
:10093400F700760803199F2CA02CA32C4030F80054
:10094400A42CF8017708FF007F08F807780880389E
:10095400F30000300A128A11EC240A128A110A12D6
:100964008A11BC240A128A11003A031DBA2CBB2C2A
:10097400B12C080083160313081688160817881765
:1009840083120313081588100630F000F00BC82CEE
:1009940000008312031388150630F000F00BD02CEE
:1009A4000000003083120313881B0130F10088110A
:1009B4000630F000F00BDC2C0000831203138815C2
:1009C4000630F000F00BE42C0000831203138811AE
:1009D40071080800F500831603130812881208131F
:1009E400881375080319F72CF82CFC2C83120313B5
:1009F4008814FF2C8312031388100630F400F40BC0
:100A0400012D00008312031308110630F400F40BC7
:100A1400092D00008312031388117308F4000430B5
:100A24000310F40CFF3E031D122D74080A128A11E0
:100A340025250A128A1173080F390A128A112525ED
:100A44000A128A110800F10083160313081288128F
:100A5400081388137108F2007218312D352D831292
:100A640003130816382D831203130812F2183B2DB2
:100A74003F2D831203138816422D83120313881209
:100A84007219452D492D8312031308174C2D831217
:100A940003130813F2194F2D532D831203138817D0
:100AA400562D8312031388130630F000F00B582DD3
:100AB40000008312031388150630F000F00B602D3C
:100AC40000008312031388110800F800F901760866
:100AD400F70002300310F70DFF3E031D6C2D0310C9
:100AE400770D403EF30000300A128A11EC240A12FA
:100AF4008A110A128A11BC240A128A11003A031DAF
:100B0400842D852D7B2DA32D7908780784000A1266
:100B14008A1103200A128A11F30001300A128A1181
:100B2400EC240A128A110A128A11BC240A128A11AC
:100B3400003A031D9E2D9F2D952D0130FF007F0847
:100B4400F9077908780784000A128A1103200A1227
:100B54008A11993A031DAF2DB02D862D0800F90096
:100B6400F52DF301F30A00300A128A11EC240A125B
:100B74008A110A128A11BC240A128A11003A031D2E
:100B8400C42DC52DBB2D002EF601F60A00300A1225
:100B94008A119A240A128A11002E1030F3000030B0
:100BA4000A128A11EC240A128A110A128A11BC242C
:100BB4000A128A11003A031DE02DE12DD72D002ED3
:100BC4007908F30001300A128A11EC240A128A11FE
:100BD4000A128A11BC240A128A11003A031DF32D49
:100BE400F42DEA2D002E7908083A0319CF2D023A84
:100BF4000319C62D063A0319B32DE22D08008312FA
:100C040003130618062E072E5A2E4130FC00EE3030
:100C1400FB00FB0B0B2EFC0B0B2E000083120313AB
:100C2400061C152E162E102E4130FC00EE30FB0053
:100C3400FB0B1A2EFC0B1A2E00000A128A11BF2677
:100C44000A128A11F60106300A128A119A240A122B
:100C54008A1158300A128A115A240A128A11F6018A
:100C6400F60A06300A128A119A240A128A116A3084
:100C74000A128A115A240A128A11831603130715B9
:100C8400831203139101F9308316031392004B303E
:100C94008312031395000C309700971217128316D2
:100CA4000313071187108312031387100530920072
:100CB4000800831203138618602E612EBE2E413065
:100CC400FC00EE30FB00FB0B652EFC0B652E0000D8
:100CD40083120313861C6F2E702E6A2E4130FC0083
:100CE400EE30FB00FB0B742EFC0B742E00000A127A
:100CF4008A11BF260A128A117A300A128A115A24DA
:100D04000A128A11F60106300A128A119A240A126A
:100D14008A1161300A128A115A240A128A11F601C0
:100D2400F60A06300A128A119A240A128A117230BB
:100D34000A128A115A240A128A1183160313871479
:100D44008312031391017C308316031392006430E1
:100D5400831203139B000C309D009D121D128316F9
:100D640003138710053083120313920083160313B1
:100D74000711831203130711080083160313881144
:100D84008810081108128812081388131430F70009
:100D94007930F600F60BCC2EF70BCC2ED12E831225
:100DA400031388100811881103300A128A112525AB
:100DB4000A128A110D30F700FB30F600F60BE02E14
:100DC400F70BE02EE52E03300A128A1125250A12AC
:100DD4008A110D30F700FB30F600F60BEF2EF70BFF
:100DE400EF2EF42E03300A128A1125250A128A11D5
:100DF4000D30F700FB30F600F60BFE2EF70BFE2E3F
:100E0400032F02300A128A1125250A128A110A12A6
:100E14008A11BC240A128A11003A031D122F132FBF
:100E2400092F2830F30000300A128A11EC240A1228
:100E34008A110A128A11BC240A128A11003A031D6B
:100E4400242F252F1B2F0C30F30000300A128A1197
:100E5400EC240A128A110A128A11BC240A128A1179
:100E6400003A031D362F372F2D2FF301F30A0030DC
:100E74000A128A11EC240A128A110A128A11BC2459
:100E84000A128A11003A031D482F492F3F2F0630BA
:100E9400F30000300A128A11EC240A128A110A1291
:100EA4008A11BC240A128A11003A031D5A2F5B2F9F
:100EB400512F0800831203130619612F622FFB2F91
:100EC4004130FB00EE30FA00FA0B662FFB0B662F65
:100ED400000083120313061D702F712F6B2F4130F6
:100EE400FB00EE30FA00FA0B752FFB0B752F000098
:100EF4000A128A11BF260A128A11F60117300A1241
:100F04008A1167250A128A110C300A128A11B12536
:100F14000A128A11F60100300A128A119A240A125E
:100F24008A1183120313A001A10183120313200861
:100F3400013E84000A128A1103200A128A110A123D
:100F44008A11B1250A128A11013083120313A007F2
:100F54000318A10A0030A1072108803AFF0080305D
:100F64007F02031DB72F0E302002031CBA2FBB2FA4
:100F7400972FF601F60A04300A128A119A240A12EB
:100F84008A1183120313A201A301831203132208FB
:100F94000F3E84000A128A1103200A128A110A12CF
:100FA4008A11B1250A128A11013083120313A20790
:100FB4000318A30A0030A3072308803AFF008030F7
:100FC4007F02031DE72F08302202031CEA2FEB2FB8
:100FD400C72F8316031387148718F12FF52F831651
:100FE40003130715F82F8316031307118312031332
:0C0FF4000910080083010A128A11792CF0
:04400E00D224FF3F7A
:00000001FF
