:060000000A128A11FC2F18
:100F6E0083160317880189018316031388018312E0
:100F7E00031388010A128A11CA270A128A11C12F75
:100F8E000A128A1100288312031388010330F2001B
:100F9E000830F1007730F000F00BD32FF10BD32F88
:100FAE00F20BD32F8030F400F30174088312031375
:100FBE0088000330F2000830F1007730F000F00BBB
:100FCE00E62FF10BE62FF20BE62F7408F00003105C
:100FDE00700CF4000130FF007F08F3070830730235
:100FEE00031CFA2FFB2FDC2F080083010A128A1133
:020FFE00B72F0B
:04400E00F220FF3F5E
:00000001FF
