:060000000A128A11EE2F26
:100B26007E088A007F0882000A128A1193250A121B
:100B36008A118000840A04087D0603190034FF0A1E
:100B46000319FE0A972D90348034F8348234923497
:100B56009934B034A434F934C034C034F934A434EC
:100B6600B034993492348234F834803490348830F6
:100B7600831203138700833088000B30F20026307F
:100B8600F1005D30F000F00BC62DF10BC62DF20B17
:100B9600C62DCD2DFF30831203138700FF3088004A
:100BA6000B30F2002630F1005D30F000F00BD92D4D
:100BB600F10BD92DF20BD92DE02D0800FD010A30DD
:100BC600F0000030F1007D08F800F9017808F20025
:100BD6007908F3000A128A1179260A128A11700816
:100BE600FB000A30F0000030F1007D08F800F90142
:100BF6007808F2007908F3000A128A11D2260A123E
:100C06008A117008FC007C082A3E840083130008C1
:100C16008312031387007B082A3E8400000888009D
:100C26000230FA008630F9009930F800F80B192ED8
:100C3600F90B192EFA0B192E0130FF007F08FD075C
:100C46001B307D02031C282E292EE22D080083125C
:100C560003132008880020088700FD010A30F000F1
:100C66000030F1007D08F800F9017808F2007908F3
:100C7600F3000A128A1179260A128A117008FB00FB
:100C86000A30F0000030F1007D08F800F90178081C
:100C9600F2007908F3000A128A11D2260A128A1182
:100CA6007008FC007C08203E840083130008831231
:100CB600031387007B08203E84000008880002306A
:100CC600FA008630F9009930F800F80B682EF90B17
:100CD600682EFA0B682E0130FF007F08FD0764308E
:100CE6007D02031C772E782E312E0800F501F31FA6
:100CF6007D2E7E2E852EF209F309F20A0319F30AD8
:100D0600F501F50AF11F882E892E8E2EF009F109BC
:100D1600F00A0319F10A700871040319932E942E30
:100D2600C32EF401F40AA22E01300310F00DF10DCA
:100D3600FF3E031D982E0130FF007F08F407F11FC8
:100D4600A52EA62E972E71087302031DAC2E7008D1
:100D56007202031CAF2EB02EB62E7008F202710876
:100D6600031CF303F30201300310F10CF00CFF3EF9
:100D7600031DB72E0130F402031DC22EC32EA62E6C
:100D860075080319C72EC82ECD2EF209F309F20AEB
:100D96000319F30A7308F1007208F0000800F50160
:100DA600F11FD62ED72EDE2EF009F109F00A03190F
:100DB600F10AF501F50AF31FE12EE22EEB2EF209F8
:100DC600F309F20A0319F30A0130FF007F08F5065A
:100DD600F601F701700871040319F22EF32E2A2F7B
:100DE600F401F40A012F01300310F00DF10DFF3E5E
:100DF600031DF72E0130FF007F08F407F11F042FB3
:100E0600052FF62E01300310F60DF70DFF3E031DDC
:100E1600062F71087302031D122F70087202031C3D
:100E2600152F162F1D2F7008F2027108031CF303ED
:100E3600F302761401300310F10CF00CFF3E031D93
:100E46001E2F0130F402031D292F2A2F052F7508A6
:100E560003192E2F2F2F342FF609F709F60A031937
:100E6600F70A7708F1007608F000080083160317E2
:100E7600880189018316031306150619432F472F88
:100E86008316031386144A2F8316031386108618B7
:100E96004D2F512F831603130614542F8316031355
:100EA6000610811315151519592F5D2F8316031377
:100EB6009514602F8316031395109518632F672FCB
:100EC6008316031315146A2F83160313151087014F
:100ED600FF30831203138700831603138801FF3044
:100EE6008312031388008312031306187B2F7C2FAB
:100EF6009E2F073083120313B5007C30B400B40B69
:100F0600822FB50B822F000083120313061C8C2F31
:100F16008D2F872F073083120313B5007C30B40062
:100F2600B40B932FB50B932F00000A128A11BA2522
:100F36000A128A11762F8618A12FA22FC42F0730E6
:100F460083120313B5007C30B400B40BA82FB50B85
:100F5600A82F000083120313861CB22FB32FAD2FC8
:100F6600073083120313B5007C30B400B40BB92FDD
:100F7600B50BB92F00000A128A11E1250A128A114F
:100F8600762F0619C72FC82FEA2F073083120313AF
:100F9600B5007C30B400B40BCE2FB50BCE2F0000BD
:100FA60083120313061DD82FD92FD32F0730831290
:100FB6000313B5007C30B400B40BDF2FB50BDF2F65
:100FC60000000A128A112A260A128A11762F762F13
:100FD6000A128A11002883133430FD000530FE0002
:100FE600A630FF00203084000A128A1197250A12C3
:0A0FF6008A1183010A128A11392FB3
:04400E00F220FF3F5E
:00000001FF
