:060000000A128A11FC2F18
:100D2E0083120313880187010330F2008A30F10029
:100D3E005530F000F00BA12EF10BA12EF20BA12ECF
:100D4E00A82EFF30831203138800FF308700033074
:100D5E00F2008A30F1005530F000F00BB42EF10B9A
:100D6E00B42EF20BB42EBB2E0800F301F40174085E
:100D7E00803AFF0080307F02031DC72E10307302B1
:100D8E00031CCA2ECB2ECC2E0B2F7408803AFF00DC
:100D9E0080307F02031DD52E083073020318D82E23
:100DAE00D92EE82E0130F000730ADF2E0310F00D5D
:100DBE00FF3E031DDD2E700883120313870088018A
:100DCE00F82E0130F0007308F83E013EF02E0310AD
:100DDE00F00DFF3E031DEE2E7008831203138800E4
:100DEE0087010230F2008630F1009930F000F00BEE
:100DFE00FE2EF10BFE2EF20BFE2E0130F307031822
:100E0E00F40A0030F407BE2E831203138701880103
:100E1E000230F2008630F1009930F000F00B152F01
:100E2E00F10B152FF20B152F0800F301F4017408C6
:100E3E00803AFF0080307F02031D272F0830730297
:100E4E0003182A2F2B2F3C2F0130F000730A312F5D
:100E5E000310F00DFF3E031D2F2F7008FF007F08BB
:100E6E0083120313870488014F2FFF30831203135D
:100E7E0087000130F0007308F83E013E482F031042
:100E8E00F00DFF3E031D462F7008FF007F088804FB
:100E9E000230F2008630F1009930F000F00B552F41
:100EAE00F10B552FF20B552F0130F3070318F40AEF
:100EBE000030F4077408803AFF0080307F02031D73
:100ECE006A2F10307302031C6D2F6E2F1E2F83128C
:100EDE000313870188010230F2008630F100993049
:100EEE00F000F00B782FF10B782FF20B782F080013
:100EFE008316031788018901831603138801831251
:100F0E0003138801831603138701831203138701CA
:100F1E00F801F9010A128A1197260A128A11831210
:100F2E000313880187010130FF007F08F9070430A1
:100F3E007902031CA32FA42F912F0230F7008630C5
:100F4E00F6009930F500F50BAA2FF60BAA2FF70B2A
:100F5E00AA2FF9010A128A11BC260A128A1101302F
:100F6E00FF007F08F90702307902031CBF2FC02F44
:100F7E00B12F0230F7008630F6009930F500F50BF0
:100F8E00C62FF60BC62FF70BC62FF9010A128A11C0
:100F9E001C270A128A110130FF007F08F90703305F
:100FAE007902031CDB2FDC2FCD2F0230F7008630A9
:100FBE00F6009930F500F50BE22FF60BE22FF70B4A
:100FCE00E22F0130FF007F08F80702307802031C81
:100FDE00F12FF22F902FFF30831203138800FF3072
:100FEE008700F82F0A128A11002883010A128A112B
:020FFE007F2F43
:04400E00F220FF3F5E
:00000001FF
