:100000000A128A11FC2F00308A000408840A820731
:1000100000344E34073469342034533469346E3438
:1000200068343A344B34693401346E3447346934BB
:1000300061344E34673406347934203453346934AF
:100040006E3468343A34313430342F34303433340D
:100050005434003401346E342034023403346334B5
:1000600020345434683404346E34683448344B34A7
:10007000543454343A34483407346E34203402341F
:10008000063474344C34043470343A340234483412
:10009000563454343134353441340034003400346F
:1000A0001834143410341034003402340934143445
:1000B00000341C3414341E3400340E340934093432
:1000C0001D34093409340E34003404340834123435
:1000D0000134123412341E34003400340434003439
:1000E0000C34043400340434003400340E3411343D
:1000F000113411340E340034043408340434003420
:100100000C34143414341E340034003400340634F7
:1001100002341C3414341C34003499344D345334B8
:10012000533456343A342034323431343134323466
:100130003234303439343134003408340434003447
:100140000E340A340A340E34003499340234043440
:1001500001340F340A340A340E3400349934013433
:100160000A34143400341C3414341E3400349934EA
:100170000834143400340C34143418340C3400347F
:0601800099340C34003438
:100844001830F30000300A128A11A5240A128A1102
:1008540008001C30F30000300A128A11A5240A1281
:100864008A110800FA00462C7A0884000A128A11B8
:1008740003200A128A110A128A116A250A128A119D
:100884000130FF007F08FA077A0884000A128A11EF
:1008940003200A128A11003A031D512C522C362CC3
:1008A4000800F70076080319582C592C5C2C4030AA
:1008B400F8005D2CF8017708FF007F08F807780836
:1008C4008038F30000300A128A11A5240A128A1112
:1008D4000A128A1175240A128A11003A031D732C14
:1008E400742C6A2C0800831603130816881608173C
:1008F400881783120313081588100630F000F00BD4
:10090400812C00008312031388150630F000F00BCD
:10091400892C0000003083120313881B0130F1007E
:1009240088110630F000F00B952C0000831203139D
:1009340088150630F000F00B9D2C00008312031381
:10094400881171080800F500831603130812881231
:100954000813881375080319B02CB12CB52C831215
:1009640003138814B82C8312031388100630F40080
:10097400F40BBA2C00008312031308110630F400A0
:10098400F40BC22C00008312031388117308F400C3
:1009940004300310F40CFF3E031DCB2C74080A1220
:1009A4008A11DE240A128A1173080F390A128A1175
:1009B400DE240A128A110800F100831603130812B8
:1009C4008812081388137108F2007218EA2CEE2CAE
:1009D400831203130816F12C831203130812F2185E
:1009E400F42CF82C831203138816FB2C83120313A4
:1009F40088127219FE2C022D831203130817052D79
:100A0400831203130813F219082D0C2D83120313F8
:100A140088170F2D8312031388130630F000F00B90
:100A2400112D00008312031388150630F000F00B1B
:100A3400192D00008312031388110800F900F8012E
:100A44007608F70002300310F70DFF3E031D252D35
:100A54000310770D403EF30000300A128A11A524DA
:100A64000A128A110A128A1175240A128A11003A8A
:100A7400031D3D2D3E2D342D5C2D7808790784000F
:100A84000A128A1103200A128A11F30001300A1291
:100A94008A11A5240A128A110A128A1175240A12CB
:100AA4008A11003A031D572D582D4E2D0130FF0099
:100AB4007F08F8077808790784000A128A1103204E
:100AC4000A128A11993A031D682D692D3F2D0800D9
:100AD400F900AE2DF301F30A00300A128A11A5249D
:100AE4000A128A110A128A1175240A128A11003A0A
:100AF400031D7D2D7E2D742DB92DF601F60A0030CF
:100B04000A128A1153240A128A11B92D1030F300E3
:100B140000300A128A11A5240A128A110A128A11B3
:100B240075240A128A11003A031D992D9A2D902DCD
:100B3400B92D7908F30001300A128A11A5240A128A
:100B44008A110A128A1175240A128A11003A031DA5
:100B5400AC2DAD2DA32DB92D7908083A0319882D94
:100B6400023A03197F2D063A03196C2D9B2D0800B8
:100B740083160313881188100811081288120813A9
:100B840088131430F7007930F600F60BC72DF70BF5
:100B9400C72DCC2D8312031388100811881103303C
:100BA4000A128A11DE240A128A110D30F700FB3072
:100BB400F600F60BDB2DF70BDB2DE02D03300A12CC
:100BC4008A11DE240A128A110D30F700FB30F60078
:100BD400F60BEA2DF70BEA2DEF2D03300A128A11DA
:100BE400DE240A128A110D30F700FB30F600F60BF2
:100BF400F92DF70BF92DFE2D02300A128A11DE248D
:100C04000A128A110A128A1175240A128A11003AE8
:100C1400031D0D2E0E2E042E2830F30000300A1270
:100C24008A11A5240A128A110A128A1175240A1239
:100C34008A11003A031D1F2E202E162E0C30F300AD
:100C440000300A128A11A5240A128A110A128A1182
:100C540075240A128A11003A031D312E322E282ED1
:100C6400F301F30A00300A128A11A5240A128A1128
:100C74000A128A1175240A128A11003A031D432E9E
:100C8400442E3A2E0630F30000300A128A11A524AD
:100C94000A128A110A128A1175240A128A11003A58
:100CA400031D552E562E4C2E08000A128A11BA2501
:100CB4000A128A11F60145300A128A1120250A12F5
:100CC4008A110C300A128A116A250A128A118312B7
:100CD4000313A501F60100300A128A1153240A12E3
:100CE4008A1183120313A4012408203E84000A12EB
:100CF4008A1103200A128A110A128A116A250A1219
:100D04008A110130FF007F0883120313A4070E30F9
:100D14002402031C8E2E8F2E762EF601F60A003046
:100D24000A128A1153240A128A1186300A128A116D
:100D340034240A128A110630FD001330FC00AD3051
:100D4400FB00FB0BA32EFC0BA32EFD0BA32EAA2E44
:100D5400B9300A128A1134240A128A110630FD00AD
:100D64001330FC00AD30FB00FB0BB62EFC0BB62E93
:100D7400FD0BB62EBD2E0130FF007F088312031336
:100D8400A50703302502031CC82EC92E6C2EB930CA
:100D94000A128A1134240A128A11F601F60AB030B2
:100DA4000A128A1120250A128A11F60100300A1249
:100DB4008A1153240A128A1183120313A5012508E8
:100DC400113E84000A128A1103200A128A110A129F
:100DD4008A116A250A128A110130FF007F088312E2
:100DE4000313A5070F302502031CF92EFA2EE12E5A
:100DF400F601F60A00300A128A1153240A128A11E3
:100E040083120313A5012508013E84000A128A11E6
:100E140003200A128A110A128A116A250A128A11F7
:100E24000130FF007F0883120313A5071130250248
:100E3400031C1D2F1E2F052F0B30FD002630FC0038
:100E44005D30FB00FB0B242FFC0B242FFD0B242F08
:100E54002B2F83120313A001A1010A128A11222449
:100E64000A128A110230FD000430FC00BA30FB0083
:100E7400FB0B3A2FFC0B3A2FFD0B3A2F00000130ED
:100E840083120313A0070318A10A0030A107210845
:100E9400803AFF0080307F02031D522F1830200259
:100EA400031C552F562F2F2FB9300A128A113424C0
:100EB4000A128A110630F600A7300A128A11202578
:100EC4000A128A110730F60095300A128A11202579
:100ED4000A128A110430F6009E300A128A11202563
:100EE4000A128A11F60100300A128A1153240A12D6
:100EF4008A1183120313A50125082E3E84000A12C9
:100F04008A1103200A128A110A128A116A250A1206
:100F14008A110130FF007F0883120313A5070C30E8
:100F24002502031C962F972F7E2FF601F60A003018
:100F34000A128A1153240A128A1183120313A50177
:100F440025083A3E84000A128A1103200A128A11E3
:100F54000A128A116A250A128A110130FF007F08D9
:100F640083120313A5070B302502031CBA2FBB2FD2
:100F7400A22F0B30FD002630FC005D30FB00FB0B84
:100F8400C12FFC0BC12FFD0BC12FC82F83120313DC
:100F9400A201A3010A128A112B240A128A11023017
:100FA400FD000430FC00BA30FB00FB0BD72FFC0B18
:100FB400D72FFD0BD72F0000013083120313A20794
:100FC4000318A30A0030A3072308803AFF008030E7
:100FD4007F02031DEF2F18302202031CF22FF32F80
:100FE400CC2FB9300A128A1134240A128A110A1237
:0C0FF4008A11002883010A128A11572E6E
:04400E00D224FF3F7A
:00000001FF
