:100000000A128A11FC2F00308A000408840A820731
:1000100000344E34073469342034533469346E3438
:1000200068343A344B34693401346E3447346934BB
:1000300061344D345334533456343A3420343234EA
:1000400031343134323432343034393431340034B0
:1000500048344B34543454343A34483407346E34CE
:1000600020340234063474344C34043470343A345A
:100070000234483456345434313435344134003445
:100080000034003418341434103410340034023482
:100090000934143400341C3414341E3400340E3447
:1000A000093409341D34093409340E34003404345D
:1000B000083412340134123412341E340034003443
:1000C000043400340C340434003404340034003478
:1000D0000E341134113411340E3400340434083425
:1000E000043400340C34143414341E34003400341A
:1000F0000034063402341C3414341C340034993473
:100100004E346734063479342034533469346E34D1
:1001100068343A34313430342F3430343334543456
:10012000003401346E342034023403346334203418
:0A0130005434683404346E3468342B
:10093E001830F30000300A128A1124250A128A1187
:10094E000800F70076080319AD2CAE2CB12C403000
:10095E00F800B22CF8017708FF007F08F807780836
:10096E008038F30000300A128A1124250A128A11E7
:10097E000A128A11F4240A128A11003A031DC82C95
:10098E00C92CBF2C0800FB01FC01E52C0A128A11B0
:10099E009F240A128A110230FA000430F900BA308C
:1009AE00F800F80BD82CF90BD82CFA0BD82C000029
:1009BE000130FB070318FC0A0030FC077C08803A64
:1009CE00F8007708803A7802031DEF2C76087B0238
:1009DE00031CF22CF32CCD2C0800831603130816DF
:1009EE008816081788178312031308158810063007
:1009FE00F000F00B002D0000831203138815063053
:100A0E00F000F00B082D0000003083120313881B3A
:100A1E000130F10088110630F000F00B142D0000AB
:100A2E008312031388150630F000F00B1C2D000006
:100A3E0083120313881171080800F500831603133F
:100A4E000812881208138813750803192F2D302DDC
:100A5E00342D831203138814372D83120313881039
:100A6E000630F400F40B392D000083120313081125
:100A7E000630F400F40B412D00008312031388118D
:100A8E007308F40004300310F40CFF3E031D4A2DCE
:100A9E0074080A128A115D250A128A1173080F3919
:100AAE000A128A115D250A128A110800F1008316B6
:100ABE00031308128812081388137108F2007218B3
:100ACE00692D6D2D831203130816702D83120313D7
:100ADE000812F218732D772D8312031388167A2DB0
:100AEE0083120313881272197D2D812D8312031325
:100AFE000817842D831203130813F219872D8B2DDB
:100B0E008312031388178E2D831203138813063056
:100B1E00F000F00B902D00008312031388150630A1
:100B2E00F000F00B982D00008312031388110800BB
:100B3E00F800F9017608F70002300310F70DFF3EBA
:100B4E00031DA42D0310770D403EF30000300A1252
:100B5E008A1124250A128A110A128A11F4240A1201
:100B6E008A11003A031DBC2DBD2DB32DDB2D790846
:100B7E00780784000A128A1103200A128A11F300E0
:100B8E0001300A128A1124250A128A110A128A11B8
:100B9E00F4240A128A11003A031DD62DD72DCD2D1D
:100BAE000130FF007F08F9077908780784000A12E0
:100BBE008A1103200A128A11993A031DE72DE82D96
:100BCE00BE2D0800F9002D2EF301F30A00300A1293
:100BDE008A1124250A128A110A128A11F4240A1281
:100BEE008A11003A031DFC2DFD2DF32D382EF60132
:100BFE00F60A00300A128A11A8240A128A11382E17
:100C0E001030F30000300A128A1124250A128A11BC
:100C1E000A128A11F4240A128A11003A031D182EA0
:100C2E00192E0F2E382E7908F30001300A128A1170
:100C3E0024250A128A110A128A11F4240A128A1120
:100C4E00003A031D2B2E2C2E222E382E7908083A10
:100C5E000319072E023A0319FE2D063A0319EB2D3E
:100C6E001A2E08000A128A1198260A128A11F60103
:100C7E0037300A128A119F250A128A110C300A1275
:100C8E008A11E9250A128A110E3083120313B0005D
:100C9E000030B1000F30B2000030B300B401B50126
:100CAE00783083120313A0003108A2003008A1008F
:100CBE003308A4003208A3000030A500A6000130BE
:100CCE00A7000030A80087300A128A1135270A12B1
:100CDE008A111030F6000030F7000A128A11CA2469
:100CEE000A128A110C300A128A11E9250A128A1187
:100CFE00013083120313B4070318B50A0030B50789
:100D0E003508803AFF0080307F02031D902E02309E
:100D1E003402031C932E942E572E942E0A128A11EF
:100D2E0000288316031388118810081108128812E0
:100D3E00081388131430F7007930F600F60BA52E41
:100D4E00F70BA52EAA2E83120313881008118811F3
:100D5E0003300A128A115D250A128A110D30F7002E
:100D6E00FB30F600F60BB92EF70BB92EBE2E033064
:100D7E000A128A115D250A128A110D30F700FB3016
:100D8E00F600F60BC82EF70BC82ECD2E03300A1226
:100D9E008A115D250A128A110D30F700FB30F6001C
:100DAE00F60BD72EF70BD72EDC2E02300A128A1135
:100DBE005D250A128A110A128A11F4240A128A1166
:100DCE00003A031DEB2EEC2EE22E2830F3000030FD
:100DDE000A128A1124250A128A110A128A11F4247F
:100DEE000A128A11003A031DFD2EFE2EF42E0C302F
:100DFE00F30000300A128A1124250A128A110A12EF
:100E0E008A11F4240A128A11003A031D0F2F102F93
:100E1E00062FF301F30A00300A128A1124250A1252
:100E2E008A110A128A11F4240A128A11003A031D39
:100E3E00212F222F182F0630F30000300A128A11AC
:100E4E0024250A128A110A128A11F4240A128A110E
:100E5E00003A031D332F342F2A2F08008312031359
:100E6E00A9000F30AE000030AF002508F6002E08A6
:100E7E000A128A11A8240A128A1183120313AA01D4
:100E8E00AB01772F831203132B08803AFA00220846
:100E9E00803A7A02031D552F21082A020318582F73
:100EAE00592F692F831203132A08290784000A1267
:100EBE008A1103200A128A110A128A11E9250A12CE
:100ECE008A116F2F20300A128A11E9250A128A110F
:100EDE00013083120313AA070318AB0A0030AB07C5
:100EEE000F30FA002E087A02FB002F090318013E7C
:100EFE00FC007C08803AFD002B08803A7D02031D21
:100F0E008A2F2A087B0203188D2F8E2F492F8312CA
:100F1E0003132708F6002E080A128A11A8240A12B3
:100F2E008A1183120313AC01AD01CB2F831203136D
:100F3E002D08803AFA002408803A7A02031DA92F60
:100F4E0023082C020318AC2FAD2FBD2F83120313D1
:100F5E002C08200784000A128A1103200A128A1113
:100F6E000A128A11E9250A128A11C32F20300A1299
:100F7E008A11E9250A128A11013083120313AC0774
:100F8E000318AD0A0030AD070F30FA002E087A02B2
:100F9E00FB002F090318013EFC007C08803AFD007F
:100FAE002D08803A7D02031DDE2F2C087B020318CC
:100FBE00E12FE22F9D2F0230FC000430FB00BA30EF
:100FCE00FA00FA0BE82FFB0BE82FFC0BE82F0000C2
:100FDE00FF3083120313AE070318AF0AFF30AF07BB
:100FEE00AF1FFA2FFB2F3C2F080083010A128A1124
:020FFE00392E8A
:04400E00D224FF3F7A
:00000001FF
