:060000000A128A11FC2F18
:100F2E008316031788018901831603138801831220
:100F3E00031388010A128A11AA270A128A11A12FF5
:100F4E000A128A110028F301F501F401CF2F740A59
:100F5E00FF008030F0000030F100B82F710DF10C61
:100F6E00F00CFF0BB52F7008730483120313880067
:100F7E000330F2000830F1007730F000F00BC52F8F
:100F8E00F10BC52FF20BC52F0130FF007F08F407C0
:100F9E000030F1007508083CF000031CF1037108E5
:100FAE00803A803C031DDD2F70087402031CE02F75
:100FBE00E12FAE2F831203130808F3000330F20063
:100FCE000830F1007730F000F00BEB2FF10BEB2F28
:100FDE00F20BEB2F0130FF007F08F507083075028A
:100FEE00031CFA2FFB2FAC2F080083010A128A1163
:020FFE00972F2B
:04400E00F220FF3F5E
:00000001FF
