:060000000A128A11FC2F18
:100F4A008316031788018901831603138801831204
:100F5A00031388010A128A11B8270A128A11AF2FBD
:100F6A000A128A1100288030F400831203138801C0
:100F7A000230F2008630F1009930F000F00BC32FF6
:100F8A00F10BC32FF20BC32F803083120313880097
:100F9A000230F2008630F1009930F000F00BD32FC6
:100FAA00F10BD32FF20BD32FF3017408F0000310C7
:100FBA00700CFF007F08F40474088312031388007E
:100FCA000230F2008630F1009930F000F00BEB2F7E
:100FDA00F10BEB2FF20BEB2F0130FF007F08F30729
:100FEA0008307302031CFA2FFB2FDA2F0800830143
:060FFA000A128A11A52F66
:04400E00F220FF3F5E
:00000001FF
